PIERCE COACH LINE INC                               37 MINEOLA AVENUE        ROSLYN           NY11576    MURRAY PORTNOY      5169213400CONSULTANTATU       1181-1061                 898 ROUTE 109            LINDENHURST      NY11757    ROSLYN           NY11576            BUS DRIVERS              20040317        MICHAEL CORDIELO    631225430000001010000110REP.                                                                        
PIERCE COACH LINE INC                               37 MINEOLA AVENUE        ROSLYN           NY11576    MURRAY PORTNOY      5169213400CONULTANT ATU       1181-1061                 898 ROUTE 109            LINDENHURST      NY11757    ROSLYN           NY11576            BUS DRIVERS              20040317        MIKE CORDIELO       631225430000001010000110REP.                                                                        
W J DILLNER TRANSFER CO.                            7001 JONES STREET        JEFFERSON HILLS  PA15025    WILLIAM J DILLNER             OWNER     IBT       249                       P.O. BOX 40128           PITTSBURGH       PA152010128JEFFERSON HILLS  PA15025    20030630STEEL HAULING                    20030328ROBERT A PUNIAK     412682370000000070000070BUS AGENT                                                                   
INTERSTATE BRANDS                                   12 E. ARMOUR BLVD        KANSAS CITY      MO64111    RICHARD COOK        8165024204VP-LR     BCT-GM    MULTI                     10402 CONNECTICUT AVENUE KENSINGTON       MD208953961MULTI            CA20895    20040331BAKERY GOODS             2004032620040326ROBERT OAKLEY       215677801100035000006000INTL VP,CH                                                                  
HOLIDAY INN                                         7TH NORTH AND ELECTRONICSLIVERPOOL        NY13088    JIM GALLAGER        3154571122GM        HERE                                                                                     LIVEERPOOL       NY13088            HOTEL                    20040328                                      00000550000075                                                                            
DIPAOLO COMPANY                                     4350 DIPAOLO CENTER      GLENVIEW         IL60025    DAVID DIPAOLO       8476998000VICE PRES IBT       DC 25                     1645 W JACKSON 6TH FL    CHICAGO          IL60612    GLENVIEW         IL60025    20040531                         20040302        TERRY HANCOCK                 00000100000100                                                                            
CALIFORNIA HOSPITAL MEDICAL CENTER                  1401 S GRAND AVE         LOS ANGELES      CA90015    DAVID MILOVICH      2137425851VP HR     CANA                                425 W BROADWAY           GLENDALE         CA91204    LOS ANGELES      CA90015    20040701MEDICAL SERVICES                 20040331KENG MAK            818240190000003500000000L/REP                                                                       
E N BISSO & SON INC (EN)                            2121 AIRLINE DR STE 503  METAIRIE         LA70001    WALTRE KRISTIANSEN  5048283296          SIUNA                               3911 LAPALCO BLVD        HARVEY           LA70058    METAIRIE         LA70001    20040531INLAND SHIP DOCKING              20040302STEVE JUDD          504328754500000200000033AGENT                                                                       
NECA ST LOUIS CHAPTER                               3245 HAMPTON AVE         ST LOUIS         MO63109    DOUGLAS MARTIN      3146443030CHAPT MGR IBEW      1                         5850 ELIZABETH AVE       ST LOUIS         MO63110    SAINT LOUIS      MO63110    20040531INSIDE ELECTRICAL                20040225STEPHEN P SCHOEMEHL 314647590000032000000000BUS MGR                                                                     
WESTERN WATERPROOFING CO                            13800 ECKLES RD          LIVONIA          MI48150    ROBERT T MAZUR                PRESIDENT RWAW      149                       P O BOX 32800            DETROIT          MI48232    DETROIT          MI48201    20040531WATERPROOFING                    20040223ROBERT PETERSON     313961609300000000000000BUS MGR                                                                     
MODERN PLATING CORPORATION                          701 S HANCOCK            FREEPORT         IL61032    JAMES R STENBERG    8152353111PRES CEO  UAW       2201                      112 N 2ND ST             ROCKFORD         IL61107    FREEPORT         IL61032    20040530PLATING                  2004030220040329GEORGE R CAMPA      815962060100000580000081INTL REP                                                                    
SAINT MARY MEDICAL CENTER                           1050 LINDEN AVE          LONG BEACH       CA90813    SCOTT GOODWIN       5624919802DIR HR    CANA                                425 W BROADWAY           GLENDALE         CA91204    LONG BEACH       CA90813    20040701MEDICAL SERVICES                 20040331ANDREW PREDILETTO   818240190000000000000450L/REP                                                                       
GLENDALE MEMORIAL HOSPITAL AND HEALTH CENTER        1420 S CENTRAL           GLENDALE         CA91204    DEBORAH WILSON      8185022235VP HR     CANA                                425 W BROADWAY           GLENDALE         CA91204    GLENDALE         CA91204    20040701MEDICAL SERVICES                 20040331KENG MAK            818240190000000000000450L/REP                                                                       
MARBA & OTHERS ELGIN IL & VICINITY IBT 330          VARIOUS                  VARIOUS                                                             IBT       330                       2400 BIG TIMBER RD BLDG BELGIN            IL60123    ELGIN            IL60120    20040531                                 20040301DOMINIC ROMANAZZI   847695151600000000000000PRESIDENT                                                                   
SAN GABRIEL VALLEY MEDICAL CENTER                   438 W LAS TUNAS DR       SAN GABRIEL      CA91776    JOANNE SUEHS        6265706528          CANA                                425 W BROADWAY           GLENDALE         CA91204    SAN GABRIEL      CA91776    20040701MEDICAL SERVICES                 20040331KENG MAK            818240190000000000000300L/REP                                                                       
EASTERN IND ELCO PRODUCTS                           4401 CAMP MEETING RD 200 CENTER VALLEY    PA18034    DICK HOLDERMAN      6108660932          IBT       773                       1345 HAMILTON ST         ALLENTOWN        PA18102    CENTER VALLEY    PA18034    20040531                                 20040309GAIL BROWN          610434445100000260000040BUS AGENT                                                                   
HAUSMAN METAL WORKS & ROOFING CO                    P O BOX 1256             ST JOSEPH        MO64502    HR MANAGER                              RWAW      20                        6321 BLUE RIDGE BLVD 202 RAYTOWN          MO64133    SAINT JOSEPH     MO64501    20040531ROOFING                          20040322JIM HADEL           816313942000000000000000BUS MGR                                                                     
SEAMAN & SCHUSKE ROOFING COMPANY                    P O BOX 448              ST JOSEPH        MO64502    HR MANAGER                              RWAW      20                        6321 BLUE RIDGE BLVD 202 RAYTOWN          MO64133    SAINT JOSEPH     MO64502    20040531ROOFING                          20040322JIM HADEL           816313942000000000000000BUS MGR                                                                     
VINCENT ROOFING COMPANY                             P O BOX 498              TOPEKA           KS66601    DOUG HUTCHINSON                         RWAW      20                        6321 BLUE RIDGE BLVD 202 RAYTOWN          MO64133    TOPEKA           KS66601    20040531ROOFING                          20040324JIM HADEL           816313942000000000000000BUS MGR                                                                     
CUSTOM SHEETMETAL & ROOFING INC                     828 NW BUCHANAN          TOPEKA           KS66608    JACK CRAVER                             RWAW      20                        6321 BLUE RIDGE BLVD 202 RAYTOWN          MO64133    TOPEKA           KS66608    20040531ROOFING                          20040324JIM HADEL           816313942000000000000000BUS MGR                                                                     
DON ALLEN CHEVROLET CO                              5315 BAUM BLVD           PITTSBURGH       PA15224    DAVID VOELKER       4126814800PRESIDENT IBT       926                       625 STANWIX ST STE 1804  PITTSBURGH       PA15222    PITTSBURGH       PA15201    20040531AUTO SALES & SERVICE             20040326CHARLES M BYRNES    412281463300000310000060SECY TREAS                                                                  
S F SULFUR CORPORATION (SF)                         P O BOX 917              FREEPORT         TX77541    K M WATSON          4092333555          PACE      4-227                     704 E PASADENA FREEWAY   PASADENA         TX77506    FREEPORT         TX77541    20040530SULFUR                           20040329MACK HICKERSON      713534818500000070000009PRESIDENT                                                                   
CHICAGO MARBLE & GRANITE DEALERS ASSN & OTHS BAC 21 551 MITCHELL RD          GLENDALE HEIGHTS IL60139    BOB LOCKERBIE       6307905700SPKSMN    BAC       21                        1950 W 43RD ST           CHICAGO          IL60609    CHICAGO          IL60601    20040531STONE & MARBLE                   20040330JIM ALLEN           773650189400001400000370PRESIDENT                                                                   
UNITED LIQUOR CORP                                  4009 AIR PARK COVE       MEMPHIS          TN38118    LARRY PERLBERG      9017945540          IBT       1196                      1993 WINCHESTER ROAD     MEMPHIS          TN38116    MEMPHIS          TN38118    20040531LIQUOR DISTRIBUTION              20040320NATHANIEL JACKSON   901396100300000200000035PRESIDENT                                                                   
GATE GOURMET                                        P O BOX 612667           DFW AIRPORT      TX75261    STUART MANORE       9725745634GENERAL MGBCTGM     111                       1720 OCALLA              DALLAS           TX75218    DALLAS           TX75261    20040530AIRLINE CATERING                 20040320RICHARD LEWIS       214328815100001250000129SECY TREAS                                                                  
BILLS IGA                                           406 EAST MAIN ST         STAUNTON         IL62088    BILL MILLER         6186352121OWNER     UFCW      534                       5010 WEST MAIN ST        BELLEVILLE       IL62226    STAUNTON         IL62088    20040528GROCERY SALES                    20040330WILLIAM FALBE       618235653400000070000000PRESIDENT                                                                   
CARLYLE IGA                                         1110 12TH STREET         CARLYLE          IL62231    JACK TAYLOR         6185943415OWNER     UFCW      534                       5010 WEST MAIN ST        BELLEVILLE       IL62226    CARLYLE          IL62231    20040529GROCERY SALES                    20040330WILLIAM FALBE       618235653400000020000000PRESIDENT                                                                   
CAPRI IGA (3 LOCS)                                  224 EAST HARRIS          GREENVILLE       IL62246    RANDY VASIL         6186640022OWNER     UFCW      534                       5010 WEST MAIN ST        BELLEVILLE       IL62226    GREENVILLE       IL62246    20040528GROCERY SALES                    20040330WILLIAM FALBE       618235653400000330000040PRESIDENT                                                                   
PLUMBING CONTRACTORS ASSOC OF CHICAGO & COOK COUNTY 1400 W WASHINGTON BLVD   CHICAGO          IL60607    ROBERT MELKO        3125639526CO CHAIR  PPF       130                       1340 W WASHINGTON BLVD   CHICAGO          IL606071936CHICAGO          IL60607    20040531PLUMBING                         20040326JAMES T SULLIVAN    312421101000030000010000BUS MGR                                                                     
SBC GLOBAL SERVICES                                 2000 W SBC CENTER DRIVE  HOFFMAN ESTATES  IL60196    MICHAEL J ZYCK      8472488824          IBEW      21                        1307 W BUTTERFIELD RD 422DOWNERS GROVE    IL60515    HOFFMAN ESTATES  IL60179    20040529TELECOMMUNICATIONS EQUIP         20040330MICHAEL J SACCO     630222911500001900000190BUS REP                                                                     
DELAWARE ELECTRIC COOPERATIVE INC                   BOX 600                  GREENWOOD        DE19950    FAY P SHOCKLEY      3023499090VP HR     IBEW      2201                      NOT PROVIDED             NOT PROVIDED     DE19950    GREENWOOD        DE19950    20040531GENERATION OF ELECTRICITY2004033020040405CHIEF NEGOTIATOR              00000000000000                                                                            
OXY VINYLS LP                                       P O BOX 34370            LOUISVILLE       KY402324370DAVID C HICKS       5027752970HR MGR    UFCW      72D                       206 EDGEWOOD DRIVE       BARDSTOWN        KY400041107LOUISVILLE       KY40201    20040531SYNTHETIC RUBBER                 20040329THOMAS R BALLARD    502348006300000450000075INTL REP                                                                    
C & S CARTON                                        310 OLIVER DR            MARSHALL         MI49068    DON SEPHAN          2697812823PLT MGR   GCIU      705S                      8680 VERONA ROAD         BATTLE CREEK     MI49014    MARSHALL         MI49068    20040518                                 20040223STANLEY MAURER      269968414300000150000015PRESIDENT                                                                   
L C COSTA CONSTRUCTION (LC)                         8 TIMOTHY DRIVE          WARMINSTER       PA18974    LOUIS M COSTA       2159429794PRESIDENT IBT       470                       3565 SEPVIVA ST          PHILADELPHIA     PA19134    PHILADELPHIA     PA19019    20040430                                 20040330THOMAS P HUMMEL     215537060000000010000000PRES B/MGR                                                                  
TRINITY PAVING CO                                   1801 GALLAGHER ROAD      PLYMOUTH MEETING PA19462    RICHARD M MARINO    6102723214PRESIDENT IBT       470                       3565 SEPVIVA ST          PHILADELPHIA     PA19134    PHILADELPHIA     PA19102    20040430HEAVY & HIGHWAY                  20040330THOMAS P HUMMEL     215537060000000020000000PRES B/MGR                                                                  
GRACIE CORP                                         4000 PULASKI AVE         PHILADELPHIA     PA19140    JUDSON HAWTHORNE    2152239900          IBT       470                       3565 SEPVIVA ST          PHILADELPHIA     PA19134    PHILADELPHIA     PA19102    20040430EXCAVATION DEMOLITION            20040330THOMAS P HUMMEL     215537060000000020000000PRES B/MGR                                                                  
VALLEY SEEDING CO INC                               306 WEST COUNTY RD       SUGARLOAF        PA18249    MARY L BURKE        5077883338PRESIDENT IBT       470                       3565 SEPVIVA ST          PHILADELPHIA     PA19134    PHILADELPHIA     PA19019    20040430LANDSCAPING                      20040330THOMAS P HUMMEL     215537060000000010000000PRES B/MGR                                                                  
CHICAGO METRO MUNICIPALITIES HIRED TRUCK AGT IBT 731VARIOUS                  VARIOUS                                                             IBT       731                       1000 BURR RIDGE PARKWAY  BURR RIDGE       IL60527    CHICAGO          IL60601    20040531TRUCKING                         20040329TERRENCE J HANCOCK  630887410000000750000100SECY TREAS                                                                  
GLASS & GLAZING CONTRACTORS WESTERN PA PAT 751      VARIOUS                  VARIOUS                                                             PAT       751                       101 EWING ROAD           CARNEGIE         PA15106    MEADVILLE        PA16335    20040531GLASS & GLAZING                  20040331HENRY JOHNSTON      412276575800001500000150BUS AGENT                                                                   
ILLINOIS AMERICAN WATER CO                          123 SW WASHINGTON        PEORIA           IL62602    KEVIN HILLEN        3096713700          HERE      16                        400 NE JEFFERSON STE 209 PEORIA           IL61603    PEORIA           IL61601    00000000WATER SERVICE                    20040331STEVE RIDLEY        309676763500000070000007PRESIDENT                                                                   
OIL DRI CORPORATION OF AMERICA                      P O BOX 476              RIPLEY           MS38663    GENE DANIELS        6628379263PLANT MGR USA       1011                      P O BOX 102105           BIRMINGHAM       AL35210    RIPLEY           MS38663    20040430CLAY PRODUCTS                    20040331IRVIN CALISTE       662257929300000460000053STAFF REP                                                                   
PLUMBING CONTRACTORS CHICAGO IL & VIC PPF 130       6050 SOUTHPORT ROAD      PORTAGE          IN46368    GARY KIRBERT                  DIRECTOR  PPF       130                       1340 W WASHINGTON BLVD   CHICAGO          IL606071936CHICAGO          IL60607    20040531PLUMBING                 2004031520040331JAMES T SULLIVAN    312421101000002500010000BUS MGR                                                                     
DOMESTIC LINEN SERVICE                              1600 COMPTON AVENUE      LOS ANGELES      CA90021    JAMES L DOLAN       2137496300          IBT       186                       1534 EASTMAN AVENUE STE BVENTURA          CA93003    VENTURA          CA93003    00000000LINEN SERVICES                   20040320BILL ELDER          805644007000000020000002SECY TREAS                                                                  
LOURDES MEDICAL CENTER                              520 N FOURTH AVE POB 2368PASCO            WA99302    SALLY ANN PETERS    5095477704HR DIR    SEIU      202                       PO BOX 9166              SPOKANE          WA99209    PASCO            WA99302    20040430MEDICAL SERVICES                 20040320GEORGE HOLMES       509328403200000550000300PRESIDENT                                                                   
HIGHWAY ASPHALT                                     700 HOME AVENUE          AKRON            OH44310    PAUL SCALA          3307629373          IBT       348                       272 W MARKET STREET      AKRON            OH44303    AKRON            OH44310    20040430                                 20040330PATRICK DARROW      330434342400000010000000SECY TREAS                                                                  
JOHNS EAGON CO                                      666 W WATERLOO RD        AKRON            OH44314    JEFF EAGON          3307452169          IBT       348                       272 W MARKET STREET      AKRON            OH44301    AKRON            OH44314    20040430                                 20040330PAT ZIGA            330434342400000070000000BUS REP                                                                     
DON WARTKO CONSTRUCTION                             975 TALLMADGE RD         KENT             OH44240                        3306735252          IBT       348                       272 W MARKET STREET      AKRON            OH44303    KENT             OH44240    20040430                                 20040330PATRICK DARROW      330434342400000010000000SECY TREAS                                                                  
KIEHL BUILDING                                      2002 WAYCROSS AVENUE     AKRON            OH44320    FRED KIEHL          3308675881          IBT       348                       272 W MARKET STREET      AKRON            OH44303    AKRON            OH44320    20040430                                 20040330GERARD COLANT       330434342400000010000000BUS REP                                                                     
CIOFFI & SON CONSTRUCTION                           1001 EASTWOOD AVENUE     AKRON            OH44305    MARIA PALCKO        3307949448          IBT       348                       272 W MARKET STREET      AKRON            OH44303    AKRON            OH44305    20040430                                 20040330GERARD COLANT       330434342400000040000000BUS REP                                                                     
W L TUCKER SUPPLY CO                                2800 SECOND STREET       CUYAHOGA FALLS   OH44221    BOB CAILOR          3309282155          IBT       348                       272 W MARKET STREET      AKRON            OH44303    CUYAHOGA FALLS   OH44221    20040430                                 20040330PATRICK DARROW      330434342400000110000000SECY TREAS                                                                  
JOHN G RUHLIN CO                                    6931 RIDGE RD POB 190    SHARON CENTER    OH44274                        3302392800          IBT       348                       272 W MARKET STREET      AKRON            OH44303    SHARON CENTER    OH44274    20040430                                 20040330PATRICK DARROW      330434342400000040000000SECY TREAS                                                                  
KENMORE CONSTRUCTION                                700 HOME AVENUE          AKRON            OH44310    BILL SCALA          3307629373          IBT       348                       272 W MARKET STREET      AKRON            OH44303    AKRON            OH44310    20040430                                 20040320PATRICK DARROW      330434342400000040000000SECY TREAS                                                                  
NORTHERN OHIO PAVING                                1749 HIGHLAND DRIVE      TWINSBURG        OH44087    KEVIN EDWARDS       3304257861          IBT       348                       272 W MARKET STREET      AKRON            OH44303    TWINSBURG        OH44087    20040430                                 20040330PATRICK DARROW      330434342400000010000000SECY TREAS                                                                  
MADELAINE CHOCOLATE NOVELTIES INC                   96-03 BEACH CHANNEL DRIVEFAR ROCKAWAY     NY11693    NORMAN GOLD         7189501500VP        UPSEU     1222                      3555 VETERANS HWY STE M  RONKONKOMA       NY11779    FAR ROCKAWAY     NY11693    20040331CHOCOLATE                        20040330JAMES GANGALE       631738877300005000000550DIR OF F S                                                                  
DANITE SIGN COMPANY                                 1640 HARMON AVENUE       COLUMBUS         OH43223    CAL LUTZ            6144443333PRESIDENT IBEW      683                       23 WEST SECOND AVENUE    COLUMBUS         OH43201    COLUMBUS         OH43201    20040531SIGNS                            20040331TIMOTHY J LUCAS     614294478600000110000027BUS MGR                                                                     
MILL VALLEY REFUSE SERVICE INC                      112 FRONT STREET POB 3557SAN RAFAEL       CA94912    DAVID BIGGIO        4154579760PRESIDENT IAM       1414 DL 190               150 SOUTH BLVD           SAN MATEO        CA94402    SAN RAFAEL       CA94912    20040630                                 20040331DONALD J BARBE      650341268900000040000000BUS REP                                                                     
DAYTONA MOTORS                                      1310 17TH STREET         SAN FRANCISCO    CA94107    GIAMPAOLO FENILI    4154310840OWNER     IAM       1414 DL 190               150 SOUTH BLVD           SAN MATEO        CA94402    SAN FRANCISCO    CA94107    20040701CARE SALES/SERVICES              20040331DONALD J BARBE      650341268900000020000000BUS REP                                                                     
FEDERAL MOGUL FRICTION PRODUCTS DIVISION            2410 PAPERMILL ROAD      WINCHESTER       VA22601    T EUGENE BRUNK      5406652253DIR CI&OD UAW       149                       2625 PAPERMILL RD        WINCHESTE        VA22601    WINCHESTER       VA22601    20040402FRICTION PRODUCTS        20040401        BRUCE PONTIA        734735660400002000000230INT'L REP                                                                   
VOIST ALPINE SERVICES & TECHNOLOGIES CORPORATION    4611 NORTH POINT BLVD    BALTIMORE        MD21219    STAN SHRODES        4104771181          USA       09477-09                  8019 CORP DRIVE STE H    BALTIMORE        MD21236    BALTIMORE        MD21201    00000000                                 20040330FRANK ROSSI         410931690000000000000000STAFF REP                                                                   
US FILTER RECOVERY SERVICES INC (MID ATLANTIC)      1105 N POINT BLVD RM 310 BALTIMORE        MD21224    VINCE GLORIOSO      4102841717VICE PRES USA       9477-16                   8019 CORP DRIVE STE H    BALTIMORE        MD21236    SPARROWS POINT   MD21219    20040518OIL RECYCLING                    20040330THOMAS CRUDUP       410931690000000130000020STAFF REP                                                                   
BEND INDUSTRIES INC READY MIX DIVISION              2200 S MAIN ST           WEST BEND        WI53095    THOMAS YAHR         2623345557VP        IBT       200                       PO BOX 2073              MILWAUKEE        WI53201    WEST BEND        WI53095    20040531READY MIX                2004040520040331FRANK ARDELLINI     414771636300000130000016BUS REP                                                                     
HEIDER & BOTT CO                                    3840 N PALMER ST         MILWAUKEE        WI53212    DONALD PORTEUS      4143325600PRESIDENT IBT       200                       PO BOX 2073              MILWAUKEE        WI53201    MILWAUKEE        WI53201    20040531                                 20040331FRANK ARDELLINI     414771636300000020000000BUS REP                                                                     
GREAT LAKES NATIONAL TRUCKING COMPANY INC           1400 ELLIS STREET        WAUKESHA         WI53186    JACKIE MAJEWSKI     2625421800PRESIDENT IBT       200                       PO BOX 2073              MILWAUKEE          53201    MILWAUKEE        WI53213    20040531TRUCKING SERVICES                20040331CHRIS HOOSER        414479364700000180000028BUS REP                                                                     
HOME SUPPLY AND BUILDING MATERIALS INC              S30 W24604 SUNSET DRIVE  WAUKESHA         WI53187    PETER LARSON        2625426664PRESIDENT IBT       200                       PO BOX 2073              MILWAUKEE          53201    MILWAUKEE        WI53201    20040531BUILDING MATERIALS               20040331FRANK ARDELLINI     414771636300000040000000BUS REP                                                                     
GORICK CONSTRUCTION CO                              27 TRACK DRIVE           BINGHAMTON       NY13904    ALFRED GORICK       6077751765PRESIDENT IUOE      106                       1284 CENTRAL AVENUE      ALBANY           NY12205    BINGHAMTON       NY13904    20040430                                 20040303ROBERT J JONES      518453651800000000000000PRESIDENT                                                                   
L & W CONSTRUCTION CO INC                           14250 B CHESTNUT GROVE CTBROOKFIELD       WI53005    THOMAS LINNAN       2627960697PRESIDENT IBT       200                       PO BOX 2073              MILWAUKEE          53201    MILWAUKEE        WI53201    20040531                                 20040331FRANK ARDELLINI     414771636300000010000000BUS REP                                                                     
MEE MATERIAL HANDLING LLC                           11721 W CARMEN AVENUE    MILWAUKEE        WI53225    MARK HEYMAN         4143533300PLANT MGR.IBT       200                       PO BOX 2073              MILWAUKEE          53201    MILWAUKEE        WI53201    20040531FORK LIFT HANDLING               20040331FRANK ARDELLINI     414771636300000150000021BUS REP                                                                     
JAMES NASH TRUCKING INC                             PO BOX 18660             MILWAUKEE        WI53218    JAMES NASH          4145274914PRESIDENT IBT       200                       PO BOX 2073              MILWAUKEE        WI53201    MILWAUKEE        WI53218    20040531                                 20040331FRANK ARDELLINI     414771636300000000000000BUS REP                                                                     
CLARK CONCRETE & TRUCKING COMPANY                   434 E BRIGHTON AVENUE    SYRACUSE         NY13210    LYNDON CLARK        3154784101          IUOE      545                       127 E GLEN AVENUE        SYRACUSE         NY13205    SYRACUSE         NY13205    20040430                                 20040315DARRYL MERRIAM      315492175200000020000000BR                                                                          
C W PURPERO                                         5770 S 13TH ST           MILWAUKEE        WI53221    ANTHONY VODNIK      4142816121VP        IBT       200                       PO BOX 2073              MILWAUKEE        WI53201    MILWAUKEE        WI53201    20040531                                 20040331FRANK ARDELLINI     414771636300000090000000BUS REP                                                                     
VULCAN MATERIALS MIDWEST DIV                        5713 RAWSON AVENUE       FRANKLIN         WI53132    RONALD LINDNER      4144212330SPRNTNDNT IBT       200                       PO BOX 2073              MILWAUKEE        WI53201    MILWAUKEE        WI53201    20040531                                 20040331FRANK ARDELLINI     414771636300000040000000BUS REP                                                                     
HARBORSIDE HEALTHCARE - THE RESERVOIR               1 EMILY WAY              WEST HARTFORD    CT06107    MARIAN CHUGA        8605617022ADMIN     LIUNA     1224                      475 LEDYARD ST           HARTFORD         CT06114    WEST HARTFORD    CT06107    20040714MEDICAL SERVICES                 20040329VERE O HAYNES       860296869700000800000100BM                                                                          
SUNNYVIEW HEALTH & REHABILITATION CENTER            900 SUNNYVIEW LANE       PRINCETON        WI54968    LISA SORNSON        9202956463ADMN      IBT       200                       W7215 MELODY LANE        FOND DU LAC      WI54937    PRINCETON        WI54968    20040630MEDICAL SERVICES                 20040331CAROL SIMON         920922288000000220000000BUS REP                                                                     
E P HENRY CORPORATION (EP)                          201 PARK AVENUE          WOODBURY         NJ089096   JAMES HENRY         8568456200          LIUNA     172                       604 BORDENTOWN ROAD      TRENTON          NJ08610    WOODBURY         NJ08096    20040724CONCRETE BLOCK PRODUCTS          20040309DEREK WEBER         609291910000000300000065BA                                                                          
STATEWIDE HIGHWAY SAFETY (H-WAY)                    P O BOX 616              HAMMONTON        NJ08037    GEORGE SMITH        6095610713          LIUNA     172                       604 BORDENTOWN ROAD      TRENTON          NJ08610    HAMMONTON        NJ08037    20040701GUARD RAIL                       20040309DEREK WEBER         609291910000000060000000BA                                                                          
CONTINENTAL CORPORATE ENGRAVING CO INC              31-00 FORTY SEVENTH AVE  LONG ISLAND CITY NY111015213JEFFREY VAN ZANDT   7187847711PRESIDENT NOITU                               148-06 HILLSIDE AVENUE   JAMAICA          NY11435    LONG ISLAND CITY NY11101    20040414PRINTING & ENGRAVING             20040223DANIEL LASKY        718291343400000450000055NATL PRES                                                                   
PDCA MILWUKEE                                       4029 W GREENFIELD AVENUE MILWAUKEE        WI53215    FRED C KUNZ         4146438003PRESIDENT PAT       781 DC 7                  2850 S 166TH ST          NEW BERLIN       WI53151    MILWAUKEE        WI53201    20040531PAINTING                         20040331JOHN T JORGENSEN    262797780000007750000850B/MGR ST                                                                    
STATIONERS ENGRAVING & PRINTING                     313 WEST 37TH ST 7TH FL  NEW YORK         NY10018    LLOYD HARRINGTON    2122424600PRESIDENT NOITU                               148-06 HILLSIDE AVENUE   JAMAICA          NY11435    NEW YORK         NY10018    20040414PRINTING & ENGRAVING             20040223DANIEL LASKY        718291343400000070000010NATL PRES                                                                   
TRIPI ENGRAVING CO INC                              60 MESEROLE AVENUE       BROOKLYN         NY112222638SALVATORE TRIVELLI  7183836500          NOITU                               148-06 HILLSIDE AVENUE   JAMAICA          NY11435    BROOKLYN         NY11222    20040414PRINTING & ENGRAVING             20040223DANIEL LASKY        718291343400000150000020NATL PRES                                                                   
PDCA RACINE                                         921 MONROE AVENUE        RACINE           WI53406    JOHN A KREKLING JR  2626328763CHAIR     PAT       108 DL 7                  2850 W 166T STREET       NEW BERLIN       WI53151    RACINE           WI53406    20040531PAINTING                         20040331JOHN T JORGENSEN    262797780000000500000070B/MG ST                                                                     
TWIN CITY PIPE TRADES SERVICE ASSOCIATION           700 TRANSFER ROAD        ST PAUL          MN55114    JIM HYNES           6516454540ADMIN     OPEIU     12                        2520 BRADWAY ST NE 200   MINNEAPOLIS      MN55413    SAINT PAUL       MN55114    20040430                                 20040304ANITA L ROY         612331830200000180000000BM                                                                          
PDCA KENOSHA                                        1016 60TH STREET         KENOSHA          WI53140    JOHN POTENTE        2622651287SECY      PAT       937 DC 7                  2850 W 166TH STREET      NEW BERLIN       WI53151    KENOSHA          WI53140    20040531PAINTING                         20040331JOHN T JORGENSEN    262797780000001000000106B/MGR ST                                                                    
B & B CONTAINER CORPORATION (B&B)                   39 RIZZOLA ROAD          KEARNY           NJ07032    HOWARD RICH         2019974711PRESIDENT PACE      1-300 MARTINSVILLE NJ     792 CHIMNEY ROCK RD STE HMARTINSVILLE     NJ08836    KEARNY           NJ07032            PAPER                            20040211CLARICE ST LUCE     732748200800000080000000PRES & BM                                                                   
NEW YORK FOLDING BOX                                129 CHRISTIE ST          NEWARK           NJ07105    KEN KAPLAN          9736997125PRESIDENT PACE      1-300 MARTINSVILLE NJ     792 CHIMNEY ROCK RD STE HMARTINSVILLE     NJ08836    NEWARK           NJ07105    20040831FOLDING BOXES                    20040211CLARICE ST LUCE     732748200800000250000035PRES & BM                                                                   
PRIME ENERGY LTD (AGUILA SERVICES INC)              15 RIVER ROAD            ELMWOOD PARK     NJ07407    BOB RAPONENSKE      2017966800PLANT MGR PACE      1-300 MARTINSVILLE NJ     792 CHIMNEY ROCK RD STE HMARTINSVILLE     NJ08836    ELMWOOD PARK     NJ07407    20040602                                 20040211CLARICE ST LUCE     732748200800000050000000PRES & BM                                                                   
TOYMASTER COMPANY                                   ONE ENTIN ROAD           CLIFTON          NJ07014    HOWARD SANDRITTER   9732496800PRESIDENT PACE      1-300 MARTINSVILLE NJ     792 CHIMNEY ROCK RD STE HMARTINSVILLE     NJ08836    CLIFTON          NJ07014    20040814                                 20040211CLARICE ST LUCE     732748200800000150000000PRES & BM                                                                   
UNIVERSAL FOLDING BOX                               MADISON & 13TH STREETS   HOBOKEN          NJ07030    FRANK PAUZA         2016597373PRESIDENT PACE      1-300 MARTINSVILLE NJ     792 CHIMNEY ROCK RD STE HMARTINSVILLE     NJ08836    HOBOKEN          NJ07030    20040831FOLDING BOXES                    20040211CLARICE ST LUCE     732748200800000950000105PRES & BM                                                                   
SUN OIL CO                                          436 DOREMUS AVENUE       NEWARK           NJ07105    TERMINAL MANAGER    9734653215          PACE      2-397 AVENEL NJ           155 AVENEL ST            AVENEL           NJ07001    NEWARK           NJ07105    20040424                                 20040224JOHN BARCELLONA     732636734300000050000000INTL REP                                                                    
GEORGIA PACIFIC                                     HIGHWAY 216/POB 919      PALATKA          FL32177    FRED PILGRIM        9043252001          PACE      3-0030 3-1717 JACKSONVILLE12582 PULASKI ROAD       JACKSONVILLE     FL32218    PALATKA          FL32177    20040530KRAFT & TISSUE                   20040323LARRY BROOKER       904757448000006500000700INTL REP                                                                    
BOX DIES INC                                        55 CONTANT AVENUE        LODI             NJ07644    ROY HUEPLER         9733850174          PACE      1-107 BROOKLYN NY         434 ALBEE SQUARE W 3RD FLBROOKLYN         NY11201    LODI             NJ07644    20040430DIES                             20040322MICHAEL FISHER      718522727200000170000027INTL REP                                                                    
CREATIVE STEEL & DIE COMPANY                        214 SULLIVAN ST          NEW YORK         NY10012    JOEL CADDLE         2127772310          PACE      1-107 BROOKLYN NY         434 ALBEE SQUARE W 3RD FLBROOKLYN         NY11201    NEW YORK         NY10012    20040516DIES                             20040322MICHAEL FISHER      718522727200000030000000INTL REP                                                                    
ILLINOIS VALLEY MACHINE SHOP INC (MILLWRIGHT AGT)   108 N LINCOLN ST         RANSOM           IL60470    JAMES COONAN        8155864511          CJA       2158                      201 E THIRD ST           STERLING         IL61081    RANSOM           IL60470    20070531MILLWRIGHT                       20040322BRUCE WERNING       815626217700000100000000EXEC S/TR                                                                   
BOISE                                               400 SECOND ST            I FALLS          MN56649    JACK STRONGMAN      2182855436HR MGR    PACE      7-0159 INTERNATIONAL FALLS6670 HIGHWAY 11          INTERNATIONAL FALMN56649    INTERNATIONAL FALMN56649    20040430PAPER PRODUCTS                   20040223MARVIN FINENDALE    715392624400002190000000INTL REP                                                                    
EASTON ASSOCIATES LTD (SHOP AGT)                    P O BOX 2885             LOVES PARK       IL61111    DAREN EASTON        8156376990PRESIDENT CJA       0792                      201 E THIRD ST           STERLING         IL61081    ROCKFORD         IL61101    20040531                                 20040302BRUCE WERNING       815626217700000030000000EXEC S/TR                                                                   
RIGGS BUILDING COMPONENTS (SHOP AGT)                2041 E RT 34             LELAND           IL60531    ERIC RIGGS          8154959613          CJA       0195                      201 E THIRD ST           STERLING         IL61081    OTTAWA           IL61350    20040831                                 20040302BRUCE WERNING       815626217700000040000000EXEC S/TR                                                                   
GREATER MILWAUKEE AREA GLAZING CONTRACTORS          12100 W WIRTH            WAUWATOSA        WI53222    MAKR LURIE          4145368000CHAIR     PAT       1204 DC 7                 2850 W 166TH ST          NEW BERLIN       WI53151    MILWAUKEE        WI53222    20040531GLAZING                          20040331JOHN T JORGENSEN    262797780000001200000145B/MGR ST                                                                    
NECA PUGET SOUND CHAPTER                            1200 WESTLAKE AVE N S 901SEATTLE          WA98109    STEVE R WASHINGTON  2062842150EX DIR    IBEW      46                        2700 FIRST AVE           SEATTLE          WA98121    SEATTLE          WA98101    20040531ELECTRICAL               20040331        GARY A PRICE        206441460000025000003200BUS MGR                                                                     
LANGLOIS COMPANY THE                                10810 SAN SEVAINE WAY    MIRA LOMA        CA91752    RICHARD LANGLOIS    9093603900PRESIDENT IBT       630                       750 SOUTH STANFORD AVENUELOS ANGELES      CA90021    LOS ANGELES      CA90021    20040531                                 20040331YVONNE PARKER       213627217800000260000026DIV REP                                                                     
SAFEWAY STORES, INC.                                P.O BOX 523              CLACKAMAS        OR97015-052STEPHEN ERDMANN     5036576310DIRECTOR OUFCW      555 17                    PO BOX 23555             TIGARD           OR97281-355PENDLETON        OR97801180520040828RETAIL MEAT                      20040401JOHN L ETTEN        503598635200000250000150COLLECTIVE                                                                  
HERMISTON RED APPLE MARKET                          305 SW 11TH STREET       HERMISTON        OR97838-219TOM DUZAN           5097351454OWNER     UFCW      555 17                    PO BOX 23555             TIGARD           OR97281-355HERMISTON        OR97838219920040828RETAIL MEAT                      20040401JOHN L ETTEN        503598635200000010000015COLLECTIVE                                                                  
ALBERTSON'S STORES                                  250 PARK CENTER BLVD     BOISE            ID83726    VICTOR MAYA         2083956291DIRECTOR OUFCW      555 17                    PO BOX 23555             TIGARD           OR97281-355PENDLETON        OR97801    20040828RETAIL MEAT                      20040401JOHN L ETTEN        503598635200000130000100COLLECTIVE                                                                  
MAPLEWOOD GOOD SAMARITAN CENTER                     550 E ROSELAWN           ST. PAUL         MN55117    GREG BAUMBERGER     6517749765ADMINISTRASEIU      113                       675 STINSON BLVD., SUITE MINNEAPOLIS      MN55413    SAINT PAUL       MN55117            HEALTH CARE                      20040401GEOFFREY BETTS      612331469000000340000125BUSINESS R                                                                  
CLARKSTON SCHOOL DISTRICT                           PO BOX 70                CLARKSTON        WA99403-007PETE LEWIS          5097582531SUPERINTENIUOE      280                       PO BOX 807               RICHLAND         WA99352    CLARKSTON        WA994030070        SCHOOL DISTRICT                  20040331DEBBIE L HENDRICK   509946510100000520000052BUSINESS R                                                                  
MIDWEST IMAGING & ROLLER SERVICES                   1457 EARL STREET         MENASHA          WI54952    JOHN SHREVE         9207226401PRESIDENT GCIU      77-P                      1300 AMERICAN DRIVE      NEENAH           WI54956    MENASHA          WI54952    20040531RUBBER PLATE MAKING              20040330RICHARD L GRISSOM   920722336500000140000020PRESIDENT                                                                   
NFLPA                                               2021 L STREET, N.W.      WASHINGTON       DC20036    EUGENE UPSHAW       2024631280EXECUTIVE OPEIU     2                         8455 COLESVILLE ROAD, SUISILVER SPRING    MD20910-332WASHINGTON       DC20036    20040531                                 20040331GEORGE KAPANOSKE    301608808000000200000020STAFF REP                                                                   
FRED MEYER                                          PO BOX 42121             PORTLAND         OR97242-012CYNTHIA THORNTON    5037977905VP EMPLOYEUFCW      555 17                    PO BOX 23555             TIGARD           OR97281-355SALEM            OR97301    20040821GENERAL MERCHANDISE              20040401JOHN L ETTEN        503598635200003740000710COLLECTIVE                                                                  
WASTE MANAGEMENT OF WI, INC.                        N96 W13503 COUNTY LINE ROMENOMONEE FALLS  WI53051    STEVE MEYER         2622538620SITE MGR. IUOE      139                       N27 W23233 ROUNDY DRIVE  PEWAUKEE         WI53072    MENOMONEE FALLS  WI53051    20040630LANDFILL SITE                    20040401DALE A MILLER       262896013900000250000030BUSINESS M                                                                  
C.G. JOHNSON BOILER COMPANY                         3100 NEBRASKA AVENUE     COUNCIL BLUFFS   IA51501    BRUCE RASMUSSEN     7123230541          BBF       83                        5910 E. 86TH STREET      KANSAS CITY      MO64138    COUNCIL BLUFFS   IA51501    20040531BOILER REPAIR                    20040401JOHN E SEWARD JR    417782796200000110000011BUSINESS R                                                                  
REPUBLIC SERVICES                                   W8470 STATE ROAD 11      DELAVAN          WI53072    MICHAEL C ETTNER    6305728800DIVISION MIUOE      139                       N27 W23233 ROUNDY DRIVE  PEWAUKEE         WI53072    DELAVAN          WI53115    20040701LANDFILL SITE                    20040401DALE A MILLER       262896013900000050000005BUSINESS M                                                                  
CRYSTAL LAKE GOOD SAMARITAN CENTER                  3815 WEST BROADWAY       ROBBINSDALE      MN55422    PATRICK RENNER      7635884635ADMINISTRASEIU      113                       675 STINSON BLVD., SUITE MINNEAPOLIS      MN55413    MINNEAPOLIS      MN55422            HEALTH CARE                      20040401GEOFFREY BETTS      612331469000000940000125BUSINESS R                                                                  
WATERVILLE GOOD SAMARITAN CENTER                    205-1ST STREET NORTH     WATERVILLE       MN56096    RUTH LEITEL         5073624245ADMINISTRASEIU      113                       675 STINSON BLVD., SUITE MINNEAPOLIS      MN55413    WATERVILLE       MN56096            HEALTH CARE                      20040401GEOFFREY BETTS      612331469000000650000100BUSINESS R                                                                  
NIESEN AND SON LANDSCAPING INC                      2413 PARMENTER STREET    MIDDLETON        WI53562    GARY LUKKEN         6088367876          LIUNA                               2801 COHO STREET         MADISON          WI53713    MIDDLETON        WI53562    20040531LANDSCAPING SERVICES             20040331MICHAEL R RYAN      608274575700000050000015PRESIDENT                                                                   
CINCINNATI GAS & ELECTRIC CO/UNION LIGHT HT PWR CO  139 EAST FOURTH STREET   CINCINNATI       OH45201    JOHN E POLLEY       5132873016GM L/RELS IBEW      1347                      4100 COLERAIN AVE        CINCINNATI       OH45223    CINCINNATI       OH45201    20060401ELECTRICITY/GAS                  20040331STEPHEN H FELDHAUS  513541620000012510003500BUS MGR                                                                     
AUBURN REGIONAL MEDICAL CENTER                      202 N DIVISION ST PLZ ONEAUBURN           WA98001    MANNY BOSSER        2538042891DIR HR    SEIU      1199NW                    15 S GRADY WAY SUITE 200 RENTON           WA98055    AUBURN           WA98001    20040630MEDICAL SERVICES                 20040331DIANE SOSNE         425917119900004370000000PRESIDENT                                                                   
HIGHLINE COMMUNITY HOSPITAL (RN'S)                  16257 SYLVESTER RD SW    BURIEN           WA98166    GRACE HENLEY        2062449970          SEIU      1199NW                    15 S GRADY WAY SUITE 200 RENTON           WA98055    SEATTLE          WA98121    20040630MEDICAL SERVICES                 20040331DIANE SOSNE         425917119900003820000000PRESIDENT                                                                   
GROUP HEALTH COOPERATIVE                            521 WALL STREET          SEATTLE          WA98121    NANCY DOMBROWSKI    2069887716L/RELS ADMSEIU      1199NW                    15 S GRADY WAY SUITE 200 RENTON           WA98055    SEATTLE          WA98121    20040630MEDICAL SERVICES                 20040331DIANE SOSNE         425917119900011640000000PRESIDENT                                                                   
MASON CONTRACTORS ASSOCIATION OF DAYTON             2210 ARBOR BLVD          DAYTON           OH45439    WILLIAM HARRIS      9372940023PRESIDENT BAC       22                        1776 EYE ST NW           WASHINGTON       DC20006    DAYTON           OH45414    20040531                                 20040331DANIEL R MILLER     937237517800002000000500FIELD REP                                                                   
CENTRE FOUNDRY & MACHINE COMPANY                    WARWOOD AVENUE BOX 4068  WHEELING         WV26003    CHARLES DEDO        3042773600PRESIDENT USA       4842 DL 8                 642 MAIN STREET REAR     BARBOURSVILLE    WV25504    WHEELING         WV26003    20040630                                 20040331ALAN SAMPSON        304733378400000530000077STAFF REP                                                                   
MILLER PIPELINE CORPORATION                         8850 CRAWFORDSVILLE RD   INDIANAPOLIS     IN46234    DAVID D WATTERS     3172930278PRESIDENT PPF       157                       8801 E MILNER AVENUE     TERRE HAUTE      IN47803    INDIANAPOLIS     IN46234    20040430PIPELINE                         20040304J OSBORN & M CROUCH 812877153100001280000150BUS REPS                                                                    
KEKAUNEE CARE CENTER LLC                            1308 LINCOLN STREET      KEWAUNEE         WI54216    TRINA TREPANIER     9203884111ADMN      SEIU      1199                      633 SOUTH HAWLEY RD S 111MILWAUKEE        WI53214    KEWAUNEE         WI54216    20040630MEDICAL SERVICES                 20040331DIANE PALMER        414727819900000400000065STAFF REP                                                                   
BOISE                                               400 SECOND ST            INTERNATIONAL FALMN56649    JACK STRONGMAN      2026285823HR MGR    PPF       589                       107 SOUTH 15TH AVE WEST  VIRGINIA         MN557923496INTERNATIONAL FALMN56649    20040430PAPER                            20040302JOHN GRAHEK         218741248200000500000950                                                                            
CARLSON BROTHERS MECHANICAL CONTRACTING             315 W FIRST ST           DULUTH           MN55802    CRAIG S CARLSON     2187238351S T       PPF       669                       7050 OAKLAND MILLS ROAD  COLUMBIA         MD21046    DULUTH           MN55802    20040430BUILDING                         20040302BRADLEY M KARBOWSKY 401381430000000060000000BM                                                                          
MINNESOTA PAINTING AND WALLCOVERING EMPLOYERS ASSN  830 TRANSFER RD STE 1A   ST PAUL          MN55114    BILL GRIMM          6516336774EX DIR    PAT       82 COUNCIL                411 MAIN ST STE 214      ST PAUL          MN55102    SAINT PAUL       MN55114    20040430                                 20040302MICHAEL GAVANDA     651224548000010930001620BM                                                                          
PIERPOINTE-ON-THE-HUDSON                            45 FAIRVIEW              TUCKAHOE         NY10707    CO A T WHITE MGMT CO9147933446LLEY COU  SEIU      32BJ                      140 HUGUENOT ST          NEW ROCHELLE     NY10801    YONKERS          NY10701    20040430                                 20040302KYLE BRAGG          914637700000000060000000VP                                                                          
PRIMARY PLASTICS INCORPORATED (PRODUCTION SHOP)     NOT PROVIDED             NOT PROVIDED                                                        SMW       112                       1200 CLEMENS CENTER PKWY ELMIRA           NY14901    JAMESTOWN        NY14701    20040430                                 20040303JOSEPH KERWAN       607733373200000000000000B M F S T                                                                   
AGGREGATE INDUSTRIES - CAMAS READY MIX              2915 WATERS ROAD #105    EAGAN            MN55121    XXX                                     IBT       221                       3001 UNIVERSITY AVE SE   MINNEAPOLIS      MN55414    SAINT PAUL       MN55121    20040430READY MIX                        20040329GEORGE VOJTA JR     612331862000001350000225S T                                                                         
AGGREGATE INDUSTRIES - SHIELY MASONRY PROD.         2915 WATERS ROAD #105    EAGAN            MN55121    XXX                                     IBT       221                       3001 UNIVERSITY AVE SE   MINNEAPOLIS      MN55414    SAINT PAUL       MN55121    20040430BLOCKS                           20040329GEORGE VOJTA JR     612331862000000340000225S T                                                                         
ANCHOR BLOCK                                        8201 BROOKLYN BLVD       BROOKLYN PARK    MN55445    XXX                                     IBT       221                       3001 UNIVERSITY AVE SE   MINNEAPOLIS      MN55414    MINNEAPOLIS      MN55445    20040430BLOCKS                           20040329GEORGE VOJTA JR     612331862000000120000035S T                                                                         
BERNARD DALSIN CO                                   8824 WENTWORTH SOUTH     MINNEAPOLIS      MN55420                                            IBT       221                       3001 UNIVERSITY AVE SE   MINNEAPOLIS      MN55414    MINNEAPOLIS      MN55420    20040430                                 20040329GEORGE VOJTA JR     612331862000000030000000S T                                                                         
BRYAN ROCK PRODUCTS CO                              P O BOX 215              SHAKOPEE         MN55379                                            IBT       221                       3001 UNIVERSITY AVE SE   MINNEAPOLIS      MN55414    SHAKOPEE         MN55379    20040430ROCKS                            20040329GEORGE VOJTA JR     612331862000000020000000S T                                                                         
CEMSTONE WEST                                       2025 CENTRE POINTE #300  MENDOTA HEIGHTS  MN55120    XXX                                     IBT       221                       3001 UNIVERSITY AVE SE   MINNEAPOLIS      MN55414    SAINT PAUL       MN55120    20040430                                 20040329GEORGE VOJTA JR     612331862000000970000320S T                                                                         
MAPCO SAND & GRAVEL                                 6800 HIGHWAY 101         SHAKOPEE         MN55379                                            IBT       221                       3001 UNIVERSITY AVE SE   MINNEAPOLIS      MN55414    SHAKOPEE         MN55379    20040430                                 20040329GEORGE VOJTA JR     612331862000000040000000S T                                                                         
VEIT CONTAINER                                      14000 VEIT PLACE         ROGERS           MN55374    XXX                                     IBT       221                       3001 UNIVERSITY AVE SE   MINNEAPOLIS      MN55414    ROGERS           MN55374    20040430ROLL-OFF                         20040329GEORGE VOJTA JR     612331862000000300000400S T                                                                         
WACO INTERNATIONAL                                  401 FIRST ST SW          NEW BRIGHTON     MN55112                                            IBT       221                       3001 UNIVERSITY AVE SE   MINNEAPOLIS      MN55414    SAINT PAUL       MN55112    20040430SCAFFOLDING                      20040329GEORGE VOJTA JR     612331862000000120000000S T                                                                         
BONGARDS CREAMERY                                   13200 COUNTY ROAD 51     NORWOOD          MN55368    SCOTT PAULSON       6123326772          IBT       471                       3001 UNIVERSITY AVE SE   MINNEAPOLIS      MN55414    NORWOOD          MN55368    20040531CHEESE                           20040329DAVE LAXEN          612331193100001750000200S T                                                                         
R E FRITZ (RE)                                      8511 TENTH AVENUE NORTH  MINNEAPOLIS      MN55427    ALAN PEDERSON       7635458856          IBT       471                       3001 UNIVERSITY AVE SE   MINNEAPOLIS      MN55414    MINNEAPOLIS      MN55427            CANDY                            20040329DAVE LAXEN          612331193100000150000030S T                                                                         
KELLOGG SNACKS                                      1275 WILLOW LAKE BLVD    VADNAIS HEIGHTS  MN55110    AARON EASON         6514840833          IBT       471                       3001 UNIVERSITY AVE SE   MINNEAPOLIS      MN55414    SAINT PAUL       MN55110            SNACKS                           20040329DAVE LAXEN          612331193100000200000025S T                                                                         
DOUGLAS COUNTY HEALTH CENTER (LPN & CNAS)           4102 WWOOLWORTH AVENUE   OMAHA            NE68105    MARY ANN BORGESON   4024443372CHAIRMAN  IBT       554                       4349 SOUTH 90TH STREET   OMAHA            NE68127    OMAHA            NE68105    20040630MEDICAL SERVICES                 20040329JAMES W SHEARD      402331055000001430000000S T                                                                         
DOUGLAS COUNTY HEALTH CENTER (RNS)                  4102 WWOOLWORTH AVENUE   OMAHA            NE68105    MARY ANN BORGESON   4024443372CHAIRMAN  IBT       554                       4349 SOUTH 90TH STREET   OMAHA            NE68127    OMAHA            NE68105    20040630MEDICAL SERVICES                 20040329JAMES W SHEARD      402331055000000230000000S T                                                                         
BASF CORPORATION                                    SAND HILL ROAD/POB 669   ENKA             NC28728    JACK A DELLINGER    8286677110PLANT MGR UFCW      2598-T TAGC               NOT PROVIDED             NOT PROVIDED     NC         ENKA             NC28728    20040526TEXTILE                          20040329MIKE BOONE          828776259700000750000000PRESIDENT                                                                   
UNIVERSITY OF HEALTH PROFESSIONALS                  270 FARMINGTON AV STE 110FARMINGTON       CT06032    JEAN MORNINGSTAR    8606768444          UNITE     110AT NEW ENGLAND JT BD   33 HARRISON AVENUE       BOSTON           MA02111    FARMINGTON       CT06032    20040630                                 20040329WARREN PEPICELLI    617426151500000040000000MANAGER                                                                     
P W SOUTHERN INCORPORATED (PW)                      800 WHARTON DR SW        ATLANTA          GA30336    THOMAS MEREDITH     4045055130GM        USA       2401-08 DISTRICT 9        365 NW FOURTEENTH ST     ATLANTA          GA30318    ATLANTA          GA30336    20040601METAL RACKS                      20040329ERNEST KINNEY       706754468000000400000000STAFF REP                                                                   
PROGRESSIVE MINNESOTA                               2500 UNIVERSITY AVE WEST ST PAUL          MN55114    BEN GOLDFARB        6516416199EX DIR    USA       DISTRICT 11               2829 UNIV AVE SE STE 100 MINNEAPOLIS      MN55414    SAINT PAUL       MN55114                                             20040329KEITH GROVER        612623800300000040000000STAFF REP                                                                   
VOLUNTEERS OF AMERICA ANGELS CARE CENTER            300 - NORTH DOW ST.      CANNON FALLS     MN55009    KARISSA OLSON       5072634658EXECUTIVE USA       12106-19 DISTRICT 11      2017 SOUTHLAWN DR STE B  DES MOINES       IA50315    CANNON FALLS     MN55009    20040701MEDICAL SERVICES                 20040329RANDY BOULTON       515953078300000660000100STAFF REP                                                                   
FEDERAL TRANSFER CENTER                             HWY 66                   EL RENO          OK73036    BRAD ESKRIDGE       4056804032H.R. MGR. AFGE      171                       P.O. BOX 1000            EL RENO          OK73036    OKLAHOMA CITY    OK73189    20030630                         2004031020040310DAHL HENDRICKSON    405422282000003000000600V-P                                                                         
DETROIT MARROITT RENISSANCE CENTER\                 RENAISSANCE CENTER       DET              MI48243    JOANNE SKIDMORE     3135688026LDR       HERE      24                        18600 WEST TEN MILE RD   SOUTHFIELD       MI48075    DET              MI48243    20031130H0SPITALITY SERVICES     20030917        VICKI PRESLEY       248569709000005860000700BUS REP                                                                     
AGC                                                 525 PARK STREET  SUITE 11ST PAUL          MN55103    DAVID SEMERAD       6516328929EX DIR    OPCM      633                       312 CENTRAL AVENUE  #376 MINNEAPOLIS      MN55414    MINNEAPOLIS      MN55414    20040430                                 20040218LARRY T VEE         612379155800008000001000BM                                                                          
GREG ZIMMERMAN STUCCO                               C/O 7301 OHMS LN STE 320 EDINA            MN55439    C/O GREGORY L PETERS9529214607ATTORNEY  LIUNA     132 563                   2350 MAIN STREET         LINO LAKES       MN55038    MINNEAPOLIS      MN55439    20040531                         20040218        JIM BRADY                     00000000000000                                                                            
GREG ZIMMERMAN STUCCO                               C/O 7301 OHMS LN STE 320 EDINA            MN55439    C/O GREGORY L PETERS9529214607ATTORNEY  OPCM      265                       312 CENTRAL AVE ROOM 386 MINNEAPOLIS      MN55414    MINNEAPOLIS      MN55439    20040530                         20040218        RICHARD FELBER                00000000000000                                                                            
OFALLON AMOCO FOOD SHOP                             1820 DUNCAN              BELLEVILLE       IL62226    KEN GROHMANN        6186325060          IBT       50                        P O BOX 140              BELLEVILLE       IL62222    O FALLON         IL62269    20040601SERVICES STATION SVCS            20040309SCOTT ALEXANDER     618233031300000030000000BUS REP                                                                     
SIX L INC LOMBARDOS SERVICE                         8318 OLD LEBANON TROY RD TROY             IL62294    STEPHEN LOMBARDO    6187440722          IBT       50                        P O BOX 140              BELLEVILLE       IL62222    TROY             IL62294    20040601SERVICE STATION SERVICES         20040309SCOTT ALEXANDER     618233031300000040000000BUS REP                                                                     
ST LOUIS EAST TRUCK PLAZA                           P O BOX 89               TROY             IL62294    HOWARD CHAMBERLAIN  6186679931          IBT       50                        P O BOX 140              BELLEVILLE       IL62222    TROY             IL62294    20040601SERVICE STATION SERVICES         20040309SCOTT ALEXANDER     618233031300000070000000BUS REP                                                                     
TRICKEYS SERVICE INC                                389 EDWARDSVILLE ROAD    WOOD RIVER       IL62095    WILLIAM PULLEN      6182540404          IBT       50                        P O BOX 140              BELLEVILLE       IL62222    WOOD RIVER       IL62095    20040601SERVICE STATION SERVICES         20040309SCOTT ALEXANDER     618233031300000040000000BUS REP                                                                     
EBY BROWN CO LLC                                    877 PERRY ROAD           PLAINFIELD       IN46168    KEVIN JACOBS        3178390740          IBT       50                        P O BOX 140              BELLEVILLE       IL62222    COLLINSVILLE     IL62234    20040619VENDING PRODUCTS                 20040309SCOTT ALEXANDER     618233031300000020000000BUS REP                                                                     
METRO EAST SAND                                     P O BOX 1585             SPRINGFIELD      IL62705    BRUCE RIMBEY        2175448445          IBT       50                        P O BOX 140              BELLEVILLE       IL62222    EAST SAINT LOUIS IL62204    20040531SAND                             20040309JOHN GREEN JR       618233031300000030000000BUS REP                                                                     
CHESTER DAIRY (ADDENDUM)                            1915 STATE ST            CHESTER          IL62233    RAYBURN KRAFT       6188262394          IBT       50                        P O BOX 140              BELLEVILLE       IL62222    CHESTER          IL62233    20040615DAIRY PRODUCTS                   20040309JOHN GREEN JR       618233031300000180000020BUS REP                                                                     
ILLINOIS DISTRIBUTING CO (DRIVERS)                  1 BUSCH BLVD             BELLEVILLE       IL62223    SCOTT GIVENS        6185387500          IBT       50                        P O BOX 140              BELLEVILLE       IL62222    BELLEVILLE       IL62220    20040531BEER DISTRIBUTION                20040309SCOTT ALEXANDER     618233031300000450000000BUS REP                                                                     
PINCUS BROTHERS MAXWELL                             INDEPENDENCE MALL EAST   PHILADELPHIA     PA19106    DAVID PINCUS        2159224900          UNITE     352                       22 SOUTH 22ND ST         PHILADELPHIA     PA19103    PHILADELPHIA     PA19019    20040427MENS CLOTHING                    20040309LYNNE P FOX         215751977000000120000012MANAGER                                                                     
RICHWILL ENTERPRISES INC                            1443 W 41ST ST           CHICAGO          IL60609    KAREN REINSCHRIEBER 7739275757          IBT       781                       200 E HOWARD ST          DES PLAINES      IL600185907DES PLAINES      IL60016    20040601COLD STORAGE SERVICE             20040309JOSEPH L BERNSTEIN  847298999900000100000000PRESIDENT                                                                   
GATE GOURMET                                        8725 SCUDDER             ST LOUIS         MO63140    SAVAS KYRAMARIOS    3147313540          IBT       688                       300 S GRAND              ST LOUIS         MO63103    SAINT LOUIS      MO63101    20040601FOOD CATERING SERVICES           20040316DAVE LALUMONDIER    314658573400000800000000BUS REP                                                                     
GATEWAY COLD STORAGE                                1800 N BROADWAY          ST LOUIS         MO63102    DAVID MACHECA       3142310200          IBT       688                       300 S GRAND              ST LOUIS         MO63103    SAINT LOUIS      MO63101    20040601COLD STORAGE SERVICE             20040316JOHN BECKER         314658575200000030000000BUS REP                                                                     
FERALLOY CORP                                       2500 CENTURY             GRANITE CITY     IL62040    MARK WHITE          6184522500          IBT       688                       300 S GRAND              ST LOUIS         MO63103    SAINT LOUIS      MO63103    20040617                                 20040316JOHN BECKER         314658575200000360000040BUS REP                                                                     
JOANNES EXPRESS                                     8613 HALTONIA            ST LOUIS         MO63134    JOANNE BENHAM       3145242520          IBT       688                       300 S GRAND              ST LOUIS         MO63103    SAINT LOUIS      MO63103    20040630COURIER SERVICES                 20040316STEVE NORRIS        314658574500000060000000BUS REP                                                                     
TEAMSTERS JOINT COUNCIL 13 (IBT)                    9041 RIVERVIEW DR        ST LOUIS         MO63147    DAN MCKAY           3148690300          IBT       688                       300 S GRAND              ST LOUIS         MO63103    SAINT LOUIS      MO63103    20040630MEMBERSHIP SERVICES              20040316ROLAND LEWIS        314658573300000010000000BUS REP                                                                     
MANHATTAN COFFEE CO                                 4333 GREEN ASH DR        EARTH CITY       MO63045    TOM ALLEN           3147312500          IBT       688                       300 S GRAND              ST LOUIS         MO63103    SAINT LOUIS      MO63103    20040630COFFEE SERVICES                  20040316STEVE NORRIS        314658574500000120000000BUS REP                                                                     
PERSONAL PACKAGE DELIVERY & PASSENGER SERVICE       6546 ODELL               ST LOUIS         MO63139    VICKIE WAHBY        3142800123          IBT       688                       300 S GRAND              ST LOUIS         MO63103    SAINT LOUIS      MO63103    20040630PACKAGE DELIVERY SERVICES        20040316STEVE NORRIS        314658574500000030000000BUS REP                                                                     
STERN FIXTURE                                       1910 LOCUST              ST LOUIS         MO63103    PAUL LANDSBAUM      3144365400          IBT       688                       300 S GRAND              ST LOUIS         MO63103    SAINT LOUIS      MO63103    20040630WAREHOUSE SERVICES               20040316STEVE NORRIS        314658574500000020000000BUS REP                                                                     
SUPERVALU WAREHOUSE                                 7100 HAZELWOOD           HAZELWOOD        MO63042    STEVE PELKEY        3145244000          IBT       688                       300 S GRAND              ST LOUIS         MO63103    SAINT LOUIS      MO63103    20040630WAREHOUSE SERVICES               20040316PAT RAFTERY         314658574400002290000240BUS REP                                                                     
FURNIVAL MACHINERY CO                               2240 BETHLEHEM PIKE      HATFIELD         PA19440    JAMES R MCKEEVER JR 2158220145PRESIDENT IUOE      542                       1375 VIRGINIA DR STE 100 FORT WASHINGTON  PA19034    HATFIELD         PA19440    20040601EQUIPMENT REPAIR                 20040315MICHAEL J PETERPAUL 215542750000000300000030BUS REP                                                                     
NEW KEIBLER THOMPSON CO THE                         RT 66 RR2 BOX 264A       EXPORT           PA15632    DON HILTY           7244680450          IUOE      542                       1375 VIRGINIA DR STE 100 FORT WASHINGTON  PA19034    EXPORT           PA15632    20040701EQUIPMENT REPAIR                 20040315MICHAEL J PETERPAUL 215542750000000100000010BUS REP                                                                     
CAPPONI ENTERPRISES                                 13451 DAMER DR           PHILADELPHIA     PA19116    JOHN CAPPONI        2154642800          IUOE      542                       1375 VIRGINIA DR STE 100 FORT WASHINGTON  PA19034    PHILADELPHIA     PA19019    20040701EQUIPMENT REPAIR SERVICES        20040315MICHAEL J PETERPAUL 215542750000000050000005BUS REP                                                                     
MACHINERY SERVICES INC                              P O BOX 228              ROYERSFORD       PA19468    GERALD A HOLLERAN   6109484630PRESIDENT IUOE      542                       1375 VIRGINIA DR STE 100 FORT WASHINGTON  PA19034    ROYERSFORD       PA19468    20040701EQUIPMENT REPAIR SERVICES        20040315MICHAEL J PETERPAUL 215542750000000050000005BUS REP                                                                     
UNITED RENTALS AERIAL EQUIPMENT                     1680 N WEST END BLVD     QUAKERTOWN       PA18951    ROGER BARR          6102824978BRANCH MGRIUOE      542                       1375 VIRGINIA DR STE 100 FORT WASHINGTON  PA19034    QUAKERTOWN       PA18951    20040701EQUIPMENT REPAIR SERVICES        20040315MICHAEL J PETERPAUL 215542750000000100000010BUS REP                                                                     
YOURGA TRUCKING TITAN LEASING (DRIVERS)             P O BOX 607              WHEATLAND        PA16161    M E DOUTT           7249813600TERM MGR  IBT       261                       351 NORTHGATE CIRCLE RM ANEW CASTLE       PA16105    WHEATLAND        PA16161    20040601TRUCKING                         20040309DAVE GREER          724658555400000600000080SECY TREAS                                                                  
YOURGA TRUCKING TITAN LEASING (MECHANICS)           P O BOX 607              WHEATLAND        PA16161    M E DOUTT           7249813600TERM MGR  IBT       261                       351 NORTHGATE CIRCLE RM ANEW CASTLE       PA16105    WHEATLAND        PA16161    20040601TRUCKING                         20040309DAVE GREER          724658555400000090000080SECY TREAS                                                                  
STEINER INC                                         1266 S ORCHARD           AURORA           IL605065667RICHARD MUNSON      6305773700          BBF       1600                      275 WASHINGTON BLVD      HOFFMAN ESTATES  IL601943045AURORA           IL60504    20040601HAND TOWEL DISPENSERS            20040308HOWARD COLE         847882948500000600000085INTL REP                                                                    
SHEET METAL COMPANIES OTTAWA IL & VICINITY SMW 1    1120 1ST ST              LASALLE          IL61301    DENNIS DOUGHERTY    8152230561EXEC SEC  SMW       1                         417 W MADISON ST STE 17  OTTAWA           IL61350    OTTAWA           IL61350    20050601SHEET METAL                      20040306DAVID HALLOWELL     815433104700000160000050BUS REP                                                                     
VALUE CITY STORES (FREDERICK STORE)                 3241 WESTERVILLE         COLUMBUS         OH43224    LYNN LEMBRERCHT     6144714722VP HR     UFCW      27                        21 WEST ROAD             BALTIMORE        MD212042325CUMBERLAND       MD21501    20040531HOUSEHOLD GOODS                  20040322MARGARET BOHON      410337270000000410000055C/B COORD                                                                   
VALUE CITY STORES (CUMBERLAND STORE)                3241 WESTERVILLE         COLUMBUS         OH43224    LYNN LEMBRERCHT     6144714722VP HR     UFCW      27                        21 WEST ROAD             BALTIMORE        MD212042325CUMBERLAND       MD21501    20040531HOUSEHOLD GOODS                  20040322MARGARET BOHON      410337270000000320000045C/B COORD                                                                   
ROSECROFT RACEWAY                                   6336 ROSECROFT DRIVE     FORT WASHINGTON  MD20022    THOMAS CHUCKAS JR   3015674000          UFCW      27                        21 WEST ROAD             BALTIMORE        MD212042325FORT WASHINGTON  MD20744    20040531GAMBLING & HORSE RACING          20040322RICHARD EVENTOFF    410337270000000880000000C/B COORD                                                                   
AFL CIO COMMUNITY SERVICES (BALTIMORE WORKS)        2701 WEST PATAPSCO AVENUEBALTIMORE        MD21230    ERNEST GRECCO       4102474898PRESIDENT UFCW      27                        21 WEST ROAD             BALTIMORE        MD212042325BALTIMORE        MD21230    20040601COMMUNITY SERVICES               20040322RICHARD EVENTOFF    410337270000000100000000C/B COORD                                                                   
RALPH & PAUL ADAMS                                  103 RAILROAD AVE         BRIDGEVILLE      DE19933    DICK HEDL           3023378208VP G/MGR  UFCW      27                        21 WEST ROAD             BALTIMORE        MD212042325BRIDGEVILLE      DE19933    20040606SCRAPPLE                         20040322BRUCE DRASAL        302934538900000340000000EXEC VP                                                                     
DELMARVA UFCW HEALTH & WELFARE FUND                 P O BOX 98               MILLSBORO        DE19966    ERIC MASTEN         3029347741CHAIRMAN  UFCW      27                        21 WEST ROAD             BALTIMORE        MD212042325MILLSBORO        DE19966    20040619MEMBERSHIP SERVICES              20040322GILBERT CEPHAS      302934538900000030000000BUS REP                                                                     
PARK AMERICA INC                                    44 WEST LANCASTER AVE    ARDMORE          PA190030511JAY WEITZMAN        8005231026PRESIDENT UFCW      27                        21 WEST ROAD             BALTIMORE        MD212042325ANNAPOLIS        MD21401    20040630PARKING SERVICES                 20040322RICHARD EVENTOFF    410337270000000040000012C/B DIR                                                                     
ALLOY SPECIALTIES INC (SHOP AGT)                    P O BOX 212              RANSOM           IL60470    JAMES COONAN        8155864728PRESIDENT CJA       2158                      201 E THIRD ST           STERLING         IL61081    RANSOM           IL60470    20070531                                 20040322BRUCE WERNING       815626217700000080000000EXEC S/TR                                                                   
GEORGIA PACIFIC CORPORATION                         P O BOX 919              PALATKA          FL32178    FRED PILGRIM        3863290080          IBEW      1583                      P O BOX 2352             PALATKA          FL32178    PALATKA          FL32177    20040601PAPER                            20040331CLYDE GUSSON        386325565600001120000800BA                                                                          
GEORGIA PACIFIC (CROSSETT AR)                       NOT PROVIDED             CROSSETT         AR71635    BOB SILVIS          4046526704          IAM       W475                      NOT PROVIDED             CROSSETT         AR71635    MEMPHIS          TN38104    00000000PLYWOOD                          20040329LEON BLOCKER        901272755700006880000715PRES DBR                                                                    
GEORGIA PACIFIC (GLOSTER MS)                        NOT PROVIDED             GLOSTER          MS39638    BOB SILVIS          4046526704          IAM       W349                      NOT PROVIDED             GLOSTER          MS39638    MEMPHIS          TN38104    00000000PLYWOOD                          20040329LEON BLOCKER        901272755700000060000007PRES DBR                                                                    
GEORGIA PACIFIC CORPORATION                         P O BOX 367              JARRATT          VA23867    DAVID E FUTRELL     4345358541HR MGR    IAM       10                        3204 CUTSHAW AVE         RICHMOND         VA23230    JARRATT          VA23867    20040601HARDBOARD & SIDING               20040329JEFF A AGEE JR      804359405800000260000100BUS REP                                                                     
ALLEGHENY FORD TRUCKS                               6TH & BINGHAM STREETS    PITTSBURGH       PA15203    BRETT MARS          4124819600GEN MGR   UAW       204                       602 EVANS CITY RD RM 200 BUTLER           PA16001    PITTSBURGH       PA15203    20040601TRUCK REPAIR & SERVICES          20040329PHIL WATKINS        724482220100000250000048INTL REP                                                                    
WOONSOCKET SPINNING COMPANY                         4701 MONROE ROAD         CHARLOTTW        NC28205    MUSTAFA ARIFOGLU    7045377011MGR DIR   UNITE     2351                      P O BOX 368              EDEN             NC27289    CHARLOTTE        NC28201    20040601YARN                             20040323ANTHONY W COLES     336623845400000260000000DIST MGR                                                                    
ELEMENTIS INC                                       5548 MANCHESTER AVE      ST LOUIS         MO63110    MIKE SURAUD         3146447840PLANT MGR PACE      5-0152                    6418 MARQUETTE AVE       ST LOUIS         MO63139    SAINT LOUIS      MO63110    20040601BENTONE NALZION                  20040329RON WILKEY          636931726200000370000040INTL REP                                                                    
RADIANT STEEL PRODUCTS COMPANY                      205 LOCUST ST            WILLIAMSPORT     PA17703    ANDREE P PHILLIPS   5703227828PRESIDENT USA       4907-05                   1800 N MARKET ST         BERWICK          PA18603    WILLIAMSPORT     PA17703    20040601FURNACE COVERS                   20040319WAYNE RENTZEL       570752771600000220000055STAFF REP                                                                   
INDUSTRIAL APPARATUS                                1320 E FLORIDA AVE       BEAUMONT         TX77705    GENE STEDMAN        4098339477          IBEW      2286                      P O BOX 3623             BEAUMONT         TX77705    BEAUMONT         TX77701    20040601INDUSTRIAL PRODUCTS              20040331RANDY ALBIN         409838344800000000000000BUS MGR                                                                     
CHICAGO ROOFING CONTRACTORS ASSOCIATION             4415 W HARRISON ST RM 242HILLSIDE         IL60162                                            IBT       786                       300 S ASHLAND AVE STE 501CHICAGO          IL60607    CHICAGO          IL60601    20040531SUPPLY BLDG MATERIAL             20040309LOU MAZZEI          312666275000000120000000PRESIDENT                                                                   
BLDG MATERIAL SUPPLIERS CHICAGO IL & VIC IBT 786    VARIOUS                  CHICAGO          IL60607    DIR H/R                                 IBT       786                       300 S ASHLAND AVE STE 501CHICAGO          IL60607    CHICAGO          IL60607    20040531SUPPLY BUILDING MATERIAL         20040309LOU MAZZEI          312666275000001360000000PRESIDENT                                                                   
RESIDENT CONTR AGT ROCK ISLAND IL & VI CJA 4 166 772VARIOUS                  STERLING         IL61081    NO REP                                  CJA       4 166 772                 201 E THIRD ST           STERLING         IL61081    ROCK ISLAND      IL61201    20040531RESIDENTIAL                      20040224BRUCE WERNING       815626217700007840010000EXEC S/TR                                                                   
FLOOR COVER AGT CONSTR ROCK ISLAND IL & VI CJA 4 166VARIOUS                  STERLING         IL61081    NO REP                                  CJA       4 166                     201 E THIRD ST           STERLING         IL61081    ROCK ISLAND      IL61201    20040531FLOOR COVERING                   20040223BRUCE WERNING       815626217700007670010000EXEC S/TR                                                                   
OXY VINYLS LP                                       5005 LBJ FREEWAY STE 500 DALLAS           TX752446123CLINT MILLER        9724043800          IAM       27                        6019 PRESTON HWY STE 2   LOUISVILLE       KY40219    LOUISVILLE       KY40201    20040531SYNTHETIC RUBBER                 20040301PAT MALONEY         502961777200000060000006BUS REP                                                                     
NASH BROTHERS CONSTRUCTION CO INC                   1840 S KILBOURN AVE      CHICAGO          IL60623    PATRICK T NASH      7737621800PRESIDENT BAC       DC 1                      1950 W 43RD ST           CHICAGO          IL60609    CHICAGO          IL60623    20040531UTILITY LINES            20040226                                      00000000000080                                                                            
IHC CONSTRUCTION COMPANIES LLC                      1500 EXECUTIVE DRIVE     ELGIN            IL60123    DAVE ROCK           8477421516PRESIDENT IBT       330                       2400 BIG TIMBER ROAD     ELGIN            IL60123    ELGIN            IL60123    20040531                         20040305        DOMINIC ROMANAZZI   847695252600000000000000PRESIDENT                                                                   
JOSEPH J DUFFY CO                                   4994 NORTH ELSTON AVE    CHICAGO          IL60630    JAMES M MANN        7737776700CHAIRMAN  BAC       DC 1                      1950 W 43RD ST           CHICAGO          IL60609    CHICAGO          IL60630    20040531                         20040220                                      00000000000000                                                                            
PLOTE CONSTRUCTION INC                              1100 BRANDT DRIVE        ELGIN            IL60120                        8476959300          BAC       DC 1                      1950 W 43RD ST           CHICAGO          IL60609    ELGIN            IL60120    20040531                         20040311                                      00000000000000                                                                            
RELIABLE & ASSOCIATES CONSTRUCTION CO               235 NORTH OGDEN AVE      CHICAGO          IL606071505MARK C KIEFFER      3126663626CONTROLLERBAC       DC 1                      1950 W 43RD ST           CHICAGO          IL60609    CHICAGO          IL60607    20040531                         20040322                                      00000000000000                                                                            
WERLON CONSTRUCTION INC                             8441 S CALUMET AVE       CHICAGO          IL60619    LON BROWN           7739947701PRESIDENT BAC       DC 1                      1950 W 43RD ST STE 2BAC  CHICAGO          IL60609    CHICAGO          IL60601    20040531                         20040329        PETER MARINOPOULOS  773847078800000000000000PRESIDENT                                                                   
ARAMARK FORD STERLING                               39000 MIOUND             STERLING HEIGHTI MI48080    RICHQRD BUNTELE     7347791509LDR       RSWDU     1064                      21800 WEST TEN MI        SOUTHFIELD       MI48075    STERLING HEIGHT  MI48080    20040112FOOD SERVICE                     20040221ELENA HERRADA       248213096600000250003000PRES.                                                                       
ARAMARK AMERICH                                     23500 NIRTHWESTEWRN HWY  SOUTHJFIELD      MI48075    OLIVERZIEDLER       7347791510LDR       RSWDU     1064                      21800 WEST TEN MILE RD   SOUTHFIELD       MI48075    DET              MI48226    20040122FOOD SERVICE                     20040121ELENA  HARRADA      248213096600000280003000PRES.                                                                       
ARAMARK DAIMLER CHRYLSER                            32000 VAN HORN           TERENTON         MI48019    RICHARD BUNTELE     7347791509LDR       RSWDU     1064                      21800 WEST TEN MI        SOUTHFIELD       MI48075    TRENTON          MI48019    20040307FOOD SERVICE                     20040121ELENA HARRADA       248213096600000270002000PRES.\                                                                      
ARAMARK PINCKNEY                                    2100 3. M-36             PINCKNEY         MI48080    RICHARD BUNTELE     7347791510LDR       RSWDU     1064                      21800 WEST TEN MILE      SOUTHFIELD       MI48075    PINKNEY          MI48129    20040831FOOD SERVICE                     20040121ELENA HARRADA       348213096600000230000600PRES.                                                                       
CRANK'S CASTERING DAIMLER(ARREN TRUCK)              27900 HOOVER             WARREN           MI48080    GERRY CRANK         5865820800LDR       RSWDU     1064                      21800 WEST TEN MILE      SOUTHFIELD       MI48075    WARREN           MI48080    20040930FOOD SERVICE                     20040121ELENMA HARRADA      248213096600000240002000PRES.                                                                       
HDS (HOSPITAL DIETARY)WALLTER REUTHER PSY HOSPITAL  30901 PALMER RD          EWSTLAND         MI48080    MS TIANG            7343678400LDR       RSWDU     1064                      21800 WEST TEN MI        SOUTHFIELD       MI48075    WESTLAND         MI48080    20040930FOOD SERVICE                     20040121ELENA HARRADA       248213096600000370000400PRS,                                                                        
GATE GOURMET IN FLIGHT KITCHEN(DET METROAIRPORT)    38000 WICK RD            ROMULUS          MI48080    MIKE DUFFELL        8479565520LDR       RSWDU     1064                      21800 WEST TEN MILE      SOUTHFIELD       MI480975   ROMULUS          MI48080    20040530FOOD SERVICE                     20040121ELENA HARRADA       248213096600000290000350PRESS.                                                                      
PEERLESS PREMIER                                    PO BOX 367               BELLEVILLE       IL62222    PHYLLIS SCHLEICHER  6182330475VP HR     BBM       S-4                       515 E. AIRLINE DR        E. ALTON         IL62024    BELLEVILLE       IL62222            STOVES                   2004031920040319JIM PRESLEY         618257260700001600000200INTL REP                                                                    
DELAWARE STATE EDUCATION ASSOCIATION (DSEA)         136 E WATER ST           DOVER            DE19958    HOWARD WEINBERG     3027345834EXEC DIR  DSO                                 136 E WATER ST           DOVER            DE19958    DOVER            DE19901    20040831EDUCATION                        20040324CHARLIE SHAFFER     302734583400000000000000SPOKESMANM                                                                  
GEORGIA PACIFIC                                     P O BOX 367              JARRATT          VA23867    MIKE JONES          4345358541PLANT MGR PACE      2-1372                    NOT PROVIDED             NOT PROVIDED                JARRATT          VA23867    20040601PAPER SHEETING                   20040402CLAVIN GRIFFIN      252537554700000510000070REP                                                                         
CUMMINS ACQUISITION LLC INC                         3507 W 20TH              JOPLIN           MO64801    LES HIGDON          4176231661MANAGER   IBT       823                       P O BOX 1299             JOPLIN           MO64801    JOPLIN           MO64801    20040605AUTO REPAIR                      20040402JIM MCCALL          417623064000000180000026PRESIDENT                                                                   
AUTO RESOURCES GROUP OF MIAMI                       3200 NW 67TH AVE         MIAMI            FL331591135FRANK MUNGUIA       3058700260          IBT       390                       12365 WEST DIXIE HWY     NORTH MIAMI      FL33161    MIAMI            FL33159    20040528WAREHOUSE SERVICES               20040401EDUARDO VALERO      305642625500000110000011                                                                            
GRABER CONCRETE PIPE COMPANY                        24W121 ARMY TRAIL ROAD   BLOOMINGDALE     IL60108    CHUCK GRABER        6308945950          LIUNA     681                       4004 N CASS AVENUE       WESTMONT         IL60559    WESTMONT         IL60559    20040531CONCRETE PIPE                    20040401RANDY DALTON        630964034000000190000019BUS MGR                                                                     
NORTHWIND CONCRETE PRODUCTS COMPANY                 4633 PRAIRIE HILL ROAD   S BELOIT         IL61080    JAMES NONDORF       8158340320          LIUNA     681                       4004 N CASS AVENUE       WESTMONT         IL60559    WESTMONT         IL60559    20040531CONCRETE PIPE                    20040401RANDY DALTON        630964034000000370000037BUS MGR                                                                     
UNITED SPACE ALLIANCE                               8550 ASTRONAUT BLVD      CAPE CANAVERAL   FL32930    JIM A WILLIAMS      3218615764LAB RELS  IAM       2061                      271 TAYLOR AVE           CAPE CANAVERAL   FL32920    CAPE CANAVERAL   FL32920    20040604SPACE SHUTTLE PROCESSING         20040401ROBERT J KLUEGEL    321783243100005530000653BUS REP                                                                     
ST CLAIR ASSOC VOCATIONAL ENTERPRISES INC (SAVE INC)3001 SAVE ROAD           BELLEVILLE       IL62221    RANDY LAW           6182341992EXEC DIR  AFSCME    1831                      P O BOX 2328             SPRINGFIELD      IL627052328BELLEVILLE       IL62220    20040630MEDICAL SERVICES                 20040401BARB BRUMFIELD      618398676700000640000080STAFF REP                                                                   
STEVE VANOPDORP TRUCKING INC                        P O BOX 30               ATKINSON         IL61235    STEVE VANOPDORP     3099367766PRESIDENT IBT       371                       7909 42ND ST WEST        ROCK ISLAND      IL61201    ATKINSON         IL61235    20040601TRUCKING                         20040325MILO MCCOWAN        309787445600000140000020VICE-PRES                                                                   
MEYER & SON EXCAVATING                              433 17TH AVE SOUTH       CLINTON          IA52732    XXX                                     IBT       371                       7909 42ND ST WEST        ROCK ISLAND      IL61201    CLINTON          IA52732    20040601EXCAVATING                       20040325MILO MCCOWAN        309787445600000000000000PRES & B/A                                                                  
VIACOM OUTDOOR                                      6767 NORTH HANLEY ROAD   ST LOUIS         MO64108    WILLIAM F MURPHY    7183666180EVP NO DIRIBEW      1                         5850 ELIZABETH AVE       ST LOUIS         MO63110    SAINT LOUIS      MO63101    20040601OUTDOOR BILLBOARDS       20040323        STEPHEN P SCHOEMEHL 347647590000000020000000BUS MGR                                                                     
VIACOM OUTDOOR (SIGN HANGERS)                       6767 NORTH HANLEY ROAD   ST LOUIS         MO64108    WILLIAM F MURPHY    7183666180EVP NO DIRIBEW      1                         5850 ELIZABETH AVE       ST LOUIS         MO63110    SAINT LOUIS      MO63110    20040611OUTDOOR BILLBOARDS               20040323STEPHEN P SCHOEMEHL 347647590000000040000000BUS MGR                                                                     
CHICAGO POWDERED METAL                              9700 WAVELAND            SCHILLER PARK    IL60176    THOMAS MILLER       8476782836GEN MGR   NPW       16                        1950 WEST ERIE ST        CHICAGO          IL60622    SCHILLER PARK    IL60176    20040531AUTOMOTIVE GEARS                 20040401BENNY CASTRO        312738082200000670000087BUS AGENT                                                                   
FLEXSOL PACKAGING CORP                              1650 EAST 95TH ST        CHICAGO          IL60617    RON MARKHAM         7732211245GEN MGR   NPW       18                        1950 WEST ERIE ST        CHICAGO          IL60622    CHICAGO          IL60617    20040528PLASTIC BAGS                     20040401WAYNE WOODARD       312738082200000780000078BUS AGENT                                                                   
WERTHEIMER BOX CORP                                 1228 W MONROE ST         CHICAGO          IL60607    JOHN SOUKUP         3128294545PLANT MGR NPW       20                        1950 WEST ERIE ST        CHICAGO          IL60622    CHICAGO          IL60607    20040514CARDBOARD BOXES                  20040401RAY SCAVONE         312738082200000330000050BUS AGENT                                                                   
LAKIN GENERAL                                       2044 N DOMINICK          CHICAGO          IL60614    KEN LAKIN           7738719642GEN MGR   NPW       20                        1950 WEST ERIE ST        CHICAGO          IL60622    CHICAGO          IL60614    20060531RUBBER TIRES                     20040401ANTONIO RIOS        312738082200000650000065BUS AGENT                                                                   
PACE INDUSTRIES                                     2524 W POLK ST           CHICAGO          IL60612    RICHARD BONTKOWSKI  3122265500VP        NPW       24                        1950 WEST ERIE ST        CHICAGO          IL60622    CHICAGO          IL60612    20040528KITCHEN & BATH CABINETS          20040401WAYNE WOODARD       312738082200001190000130BUS AGENT                                                                   
