CPS                                                 145 NAVARRO              SAN ANTONIO      TX78296    RON BROWN           2103534360HR   EEO  IBEW                                100 NAVARRO              SAN ANTONIO      TX78223    SAN ANTONIO      TX78223            ELECTRICAL               2004013020040130ART TUTTLE          210353443100000000000000PRESIDENT                                                                   
CPS                                                 145 NAVARRO              SAN ANTONIO      TX78296    RON BROWN           2103534360HR   EEO  IBEW                                100 NAVARRO              SAN ANTONIO      TX78223    SAN ANTONIO      TX78223            ELECTRIC                 2004013020040130ART TUTTLE          210353443100000000000000PRESIDENT                                                                   
RUSSEL COIL                                         3860 ARIZONA AVE         YUMA             AZ85365    RICK MALLONEE       9287266937PLT MGR   SMW       359                       2604 E ADAMS ST          PHOENIX          AZ85034    YUMA             AZ85365    20060901                                 20040107MARCO MOLINA        602273138800002450000270B.R.                                                                        
EMP                                                 125 N BLUE RD            GREENFIELD       IN46140    MELISSA JEWELL      3177863476LR MGR    UAW                                                          INDIANAPOLIS     IN46237    GREENFIELD       IN46140            MFG                      2003120520031205MAX JEFFRIES        317247551500000700000090INT REP                                                                     
CANYON COUNTRY CLUB                                 1100 MURRAY CANYON DRIVE PALM SPRINGS     CA92264    JAN HART            7603271321          LIUNA     1184                      1128 E LA CADENA DRIVE   RIVERSIDE        CA92501    PALM SPRINGS     CA92264    20040401RECREATION SERVICES              20040130JOHN SMITH          909684148400000130000000BUS MGR                                                                     
LIFT TRUCK SERVICE INC                              2241 COMMERCE PLACE      HAYWARD          CA94545    GREG RADOVICH       5107836023          USA       1304                      1820 GALINDO ST STE 240  CONCORD          CA94520    HAYWARD          CA94545    20040331                                 20040130DANIEL GUTIERREZ    925798705000000080000008STAFF REP                                                                   
H E MICROWAVE CORP                                  2900 EAST ELVIRIA RD     TUCSON           AZ85706    DREW BRISCOE        5208068862MANANGER  IAM       933                       369 WEST AJO WAY         TUCSON           AZ85713    TUCSON           AZ85706    20040327ELECTRONICS                      20040130ROBERT M MARTINEZ   520294769600000280000044DIR B/MGR                                                                   
WATSONVILLE COMMUNITY HOSPITAL                      75 NIELSON STREET        WATSONVILLE      CA95076    KAYLOR SHEMBERGER   8317244741CEO       IBT       912                       22 EAST FIFTH ST         WATSONVILLE      CA95076    WATSONVILLE      CA95076    20040430MEDICAL SERVICES                 20040130BRAD SEBRING        831724068300000000000000SECY TREAS                                                                  
RIVERS BEND H/REHB CTEXTENDICARE HEALTH SERVICES INC960 RAPIDS ROAD          MANITOWOC        WI54220    CINDY SPRINGER1     3172371328ATTORNEY  AFSCME    913                       14002 COUNTRY RD C       VALDERS          WI54245    MANITOWOC        WI54220    20040630MEDICAL SERVICES                 20040130NEIL RAINFORD       920758212200000800000120STAFF REP                                                                   
GOODRICH CORPORATION                                101 WACO ST              TROY             OH45373    GARY VILLELLA       9374402001VP HR/ADMNUAW       128                       1230 S MARKET ST         TROY             OH45373    TROY             OH45373    20040502PARTS                    20040130        STEVE SHELTON       937433152400003470000800INTL REP                                                                    
BAKERSFIELD MEMORIAL HOSPITAL CHW                   185 BERRY STREET STE 300 SAN FRANCISCO    CA94107    DAVID JONES         4154385568VP E/L RELSEIU      399                       5480 FERGUSON DRIVE      LOS ANGELES      CA90022    BAKERSFIELD      CA93301    20040430MEDICAL SERVICES                 20040129STEVE NUTTER        323201232400010000003000ATTY                                                                        
COMMUNITY HOSPITAL OF SAN BERNARDINO/ST BERNARDINE  185 BERRY ST STE 300     SAN FRANCISCO    CA94107    DAVID JONES         4154385568VP E L/RELSEIU      399                       5480 FERGUSON DRIVE      LOS ANGELES      CA90022    SAN BERNARDINO   CA92404    20040430MEDICAL SERVICES                 20040129STEVE NUTTER        323201232400015000003000ATTY                                                                        
SAINT MARY MEDICAL CENTER DBA CHW                   185 BERRY STREET STE 300 SAN FRANCISCO    CA94107    DAVID JONES         4154385568VP E L RELSEIU      399                       5480 FERGUSON DRIVE      LOS ANGELES      CA90022    SAN FRANCISCO    CA94107    20040430MEDICAL SERVICES                 20040129STEVE NUTTER        323201232400009000001500ATTY                                                                        
CALIFORNIA HOSPITAL MEDICAL CENTER DBA CHW          185 BERRY ST STE 300     SAN FRANCISCO    CA94107    DAVID JONES         4154385568VP E L/RELSEIU      399                       5480 FERGUSON DRIVE      LOS ANGELES      CA90022    LOS ANGELES      CA90015    20040430MEDICAL SERVICES                 20040129STEVE NUTTER        323201232400005000001000ATTY                                                                        
ST JOHNS REG MEDICAL CTR/ST JOHNS PLEASANT VLLY HOSP185 BERRY STREET STE 300 SAN FRANCISCO    CA94107    DAVID JONES         4154385568VP E/L RELSEIU      399                       5480 FERGUSON DRIVE      LOS ANGELES      CA90022    OXNARD           CA93030    20040430MEDICAL SERVICES                 20040129STEVE NUTTER        323201232400012000002000ATTY                                                                        
DAVIS BROTHERS FOOD & BEVERAGE GROUP                                                                     JAMES A BOWLES      2136200460ATTY      HERE      11                        675 S PARK VIEW STREET   LOS ANGELES      CA90028    LOS ANGELES      CA90028    20040415                         20040130        MARIA ELENA DURAZO            00000000000000PRESIDENT                                                                   
EVERGREEN MANOR LIVING CTR (TRINITY CONTINUING CARE)111 EVERGREEN RD         BATTLE CREEK     MI49017    DOYLE MCKINNEY      2483057347CORP IR   SEIU      79                        2604 FOURTH STREET       DETROIT          MI48201    BATTLE CREEK     MI49017    20040501MEDICAL SERVICES                 20040128JOYCE PEARSON       313965945000000530000000                                                                            
INSULATION CONTRACTORS ASSOCIATION OF CLEVELAND     1600 EAST 25TH STREET    CLEVELAND        OH44114    RICHARD P BERRY     2166216289PRESIDENT HFIA      3                         1617 EAST 30TH ST        CLEVELAND        OH44114    CLEVELAND        OH44114    20040430                         2004012820040202JAMES SULLIVAN      216621352200002500000250BUS MGR                                                                     
MUSSON BROS INC                                     909 BOYCE DRIVE          RHINELANDER      WI54501    TIMOTHY MUSSON      7153658700PRESIDENT IBT       662                       PO BOX 86                EAU CLAIRE       WI54702    RHINELANDER      WI54501    20040331                                 20040128JOHN REARDON        715344453600000550000000                                                                            
WARWOOD ARMATURE REPAIR COMPANY INC                 SEVENTH & HAZLETT AVENUE WHEELING         WV26003    RAYMOND THALMAN III 3042772550VICE PRES IBEW      141                       82 BURKHAM COURT         WHEELING         WV26003    WHEELING         WV26003    20040315                                 20040128JOHN R CLARKE       304242387000000430000050BUS MGR                                                                     
AMERICAN ELECTRIC POWER CO  ( COOK NUCLEAR PLANT)   ONE COOK PLACE           BRIDGMAN         MI49106    THOMAS H DAWSON     2604252144L/RELS MGRIBEW      1392                      2015 W WESTERN AVE RM 203SOUTH BEND       IN46629    BRIDGMAN         MI49106    20050331                                 20040128DAVID L SCHIMMEL    574287063600000240000000BUS MGR                                                                     
TENNECO AUTOMOTIVE (FKA MONROE AUTOMOTIVE EQUIPMENT 6451 FIFTEEN MILE RD     STERLING HEIGHTS MI48312    HR DIR              5869399500          UAW       9699                      6038 E MARLETTE BOX 355  MARLETTE         MI48453    STERLING HEIGHTS MI48312    20040331AUTOMOBILES                      20040128FRANK STUGLIN       586427920000001200000150INTL REP                                                                    
SPARTA MANUFACTURING COMPANY                        445 HOLTAN ST            SPARTA           WI54656    JEFF KILPIN         6082692195          LIUNA     140                       1920 WARD AVE STE 10     LA CROSSE        WI54601    SPARTA           WI54656    20040228CASTINGS                         20040128KEVIN D LEE         608788109500000650000085                                                                            
MUELLER BRASS COMPANY                               2199 LAPEER AVE          PORT HURON       MI48060    NADENE LAFAVRE      8199877700          IAM       218                       ONE HERITAGE PL STE 550  SOUTHGATE        MI48195    PORT HURON       MI48060    20040401BRASS PRODUCTS                   20040128DONALD L RIFFEE JR  734281282200000700000000DBR                                                                         
KNIGHT CONSTRUCTION CO                              1931 AUSTIN              TROY             MI48083    STEVEN KNIGHT                           IAM       698                       ONE HERITAGE PLACE S 550 SOUTHGATE        MI48195    TROY             MI48083    20040401                                 20040128DONALD L RIFFEE JR  734281282200000010000000DBR                                                                         
KELLEY TUF SEAL                                     W183 S8253 RACINE AVENUE MUSKEGO          WI53150    LORI TESENSKY       2626796200HR        IBT       200                       PO BOX 2073              MILWAUKEE        WI53201    MILWAUKEE        WI53201    20040331                                 20040128DENNIS THOMAS       414771636300000390000050BUS REP                                                                     
KITZINGER II                                        2529 E NORWICH AVE       SAINT FRANCIS    WI53235    MARK FURGASON       4144837373PRESIDENT IBT       200                       PO BOX 2073              MILWAUKEE        WI53201    MILWAUKEE        WI53201    20040331                                 20040128DENNIS THOMAS       414771636300000180000030BUS REP                                                                     
CROWN NURSING & REHABILITATION CENTER               3457 NOSTRAND AVENUE     BROOKLYN         NY11229    DAVID FIELDING      7186151100ADMIN     SEIU      1199 NYHHSU               310 WEST 43RD STREET     NEW YORK         NY10036    BROOKLYN         NY11229            MEDICAL SERVICES                 20040202JAY SACKMAN         212261246500000000000000EX VP                                                                       
INTERFAITH CENTER ON CORPORATE RESPONSIBILITY       475 RIVERSIDE DR RM 550  NEW YORK         NY10115    PAT WOLF            2128702294EX DIR    UAW       2110                      113 UNIVERSITY PL 5TH FL NEW YORK         NY10003    NEW YORK         NY10115    20040331SOCIAL SERVICES                  20040120JUNE BENJAMIN       212387022000000100000000RECORD SEC                                                                  
TEACHERS COLLEGE                                    525 WEST 120TH STREET    NEW YORK         NY10027    JIM MITCHELL        2126784084PERS DIR  UAW       2110                      113 UNIVERSITY PL 5TH FL NEW YORK         NY10003    NEW YORK         NY10027    20040229EDUCATION                        20040120MIKE CINQUINA       212387022000001250000000TRUSTEE                                                                     
KEYSPAN HOME ENERGY SERVICES                        62 SECOND AVENUE         BURLINGTON       MA01803    KEVIN CADDELL       7813592602DIR OF F OUSA       9432 DISTRICT 4           100 MEDWAY ROAD STE 403  MILFORD          MA01757    BURLINGTON       MA01803    20040229                                 20040113STEPHEN J FINNIGAN  508482555500000700000000STAFF REP                                                                   
QUEMETCO INC                                        7870 W MORRIS ST         INDIANAPOLIS     IN46231    GEORGE REZABEK      3172438756VP        USA       1999-09 DIST 7 SUB DIST 3 9245 N MERIDIAN STE 226  INDIANAPOLIS     IN46260    INDIANAPOLIS     IN46231    20040229LEAD RECYCLING                   20031229JAMES ADCOCK        317844628600001750000220STAFF REP                                                                   
DEAN FOODS COMPANY                                  3600 N RIVER ROAD        FRANKLIN PARK    IL60131    NEIL FINERTY                  VP OF I R UFCW      700                       5638 PROFESSIONAL CIRCLE INDIANAPOLIS     IN46241    PLYMOUTH         IN46563    20040307PICKLES                          20040114C LEWIS PIERCEY     317248039100001450000200PRESIDENT                                                                   
KROGER COMPANY THE                                  10168 LIN STATION ROAD   LOUISVILLE       KY40223    KATHY MILLER        5024234941H R       UFCW      700                       5638 PROFESSIONAL CIRCLE INDIANAPOLIS     IN46241    MARION           IL62959    20040228MEAT & MEAT PRODUCTS             20040112RICK FITZGERALD     317248039100000580000065B/A                                                                         
SHERIDAN PARK IGA                                   2501 MAPLE AVENUE        TERRE HAUTE      IN47804    STEVE SHAW                              UFCW      700                       5638 PROFESSIONAL CIRCLE INDIANAPOLIS     IN46241    TERRE HAUTE      IN47804    20040224GROCERIES                        20040112C LEWIS PIERCEY     317248039100000110000000PRESIDENT                                                                   
VIP HEALTH CARE SERVICES                            116-12 MYRTLE AVENUE     RICHMOND HILL    NY11418    CINDY ROSEN         7188479800          UFCW      670                       299 BROADWAY             NEW YORK         NY10007    RICHMOND HILL    NY11418    20040403MEDICAL SERVICES                 20040121DALLAS LUCAS        212267865000009000001000PRESIDENT                                                                   
NORWALK ECONOMIC OPPORTUNITY NOW INC                98 S MAIN ST             NORWALK          CT06854    RALPH D MASTRONY    2038992425D D OF H RUFCW      371                       290 POST ROAD WEST       WESTPORT         CT06880    NORWALK          CT06854    20040229CHILD CARE                       20031229BRIAN A PETRONELLA  203226475100001100000134PRESIDENT                                                                   
FARMLAND DAIRIES INC                                520 MAIN AVENUE          WALLINGTON       NJ07057    PETER CLIFFORD      9737772500VP OF H R UFCW      338                       97-45 QUEEN BLVD         REGO PARK        NY11374    WALLINGTON       NJ07057    20040319DAIRY PRODUCTS                   20031229MICHAEL PASQUARETTA 718997740000002800000500DIR OF C B                                                                  
GREENTREE PACKING INC                               65 CENTRAL AVENUE        PASSAIC          NJ07055    DONALD WATERS       9734731305          UFCW      464A                      245 PATERSON AVENUE      LITTLE FALLS     NJ07424    PASSAIC          NJ07055    20040222GROCERIES                        20040113JOHN NICCOLLAI III  973256679000000610000075CONT ADMIN                                                                  
LIBRARY BINDING SERVICE                             1801 THOMPSON            DES MOINES       IA50317    FRITZ JAMES         5152623191PRESIDENT GCIU      157-M                     2000 WALKER ST STE G     DES MOINES       IA50317    DES MOINES       IA50316    20040313PRINTING                         20040120LUIE WEIKUM         515265119000000130000030PRESIDENT                                                                   
GLOBE METALLURGICAL INC                             2401 OLD MONTGOMERY HWY  SELMA            AL36701    FRED SWANK          3348742056PLANT MGR CWA       83693                     P O BOX 1333             SELMA            AL36701    SELMA            AL36701    20040331SILLICON METAL                   20040120ALETHA BAPTIST      901412070500000500000060INTL REP                                                                    
SAFEWAY STEEL PRODUCTS INC                          3411 HANSON ST           FT MYERS         FL33916    WILLIAM FIORILLO    9413348112          CJA       1641                      295 WEST 79TH PLACE      HIALEAH          FL33014    FORT MYERS       FL33916    20040403SCAFFOLD ERECTION                20040120MARK KUZMIK         305557610000000350000000BUS REP                                                                     
ARAMARK UNIFORM SERVICES                            1827 WALDEN OFFICE SQUARESCHAMBURG        IL60704    HEATHER RONNOW      6302712960DIR OF H RPACE      7-0578 AUSTIN MN          316 FOURTH AVENUE NE     AUSTIN           MN55912    OWATONNA         MN55060    20040402                                 20040112LARRY KELLY         507433292400000120000016PRESIDENT                                                                   
VALLEYDALE FOODS, INC.                              501 N. CHURCH STREET     SMITHFIELD       VA23430    SHERRIE STRING      5403895473VP HUMAN RUFCW      400                       4301 GARDEN CITY DR      LANDOVER         MD20785-229SALEM            VA24153    20040726MEAT PROCESSING          20040202        C. JAMES LOWTHERS   301459340000001750000175PRESIDENT                                                                   
PRECEPT MEDICAL PRODUCTS, INC                       370 AIRPORT ROAD         ARDEN            NC28704    JOHN SOPCISAK       8286810209C E O     UFCW      99                        2401 N CENTRAL AVE, 2ND FPHOENIX          AZ85004-133DOUGLAS          AZ85607    20040318HOSPITAL DISPOSABLES     20040130        JAMES J MCLAUGHLIN  602251041200000100000010PRESIDENT                                                                   
COUNTRY FRESH LLC/FLINT                             609 CHAVEZ DR            FLINT            MI48503    DOUG MILAM          8005725390PLANT MANARWDSU     602                       5046 DAVISON RD          BURTON           MI48509    FLINT            MI48503            DAIRY                            20040202ROSE M DIETZ        616241435700000150000250INTERNATIO                                                                  
FRIEDLAND INDUSTRIES, INC.                          PO BOX 14180             LANSING          MI48901    ROBERT STRAUSSE     5174823000VP        RWDSU     93                        5825 CALETA DR           LANSING          MI48911    LANSING          MI48901    20040430RECYCLING/SCRAPYARD              20040202ROSE M DIETZ        616241435700000110000025INTERNATIO                                                                  
LIBBEY OWENS FORD COMPANY                           2720 W. GRAND AVE.       CHICAGO          IL60612    TED WENGER          7344629380MARKET MANIBT       705                       1645 WEST JACKSON BOULEVACHICAGO          IL60612-322CHICAGO          IL60612322720030331PRODUCT DELIVERY         20040130        MICHAEL A LASS      312738280000000020000005UNION REPR                                                                  
BESTWAY SUPERMARKET                                 8450 PINEY BRANCH ROAD   SILVER SPRING    MD20901    DANIEL B CHOI       3015875262PRESIDENT UFCW      400                       4301 GARDEN CITY DR      LANDOVER         MD20785-229SILVER SPRING    MD20901    20040630GROCERY STORE CLERKS             20040202C. JAMES LOWTHERS   301459340000000530000070PRESIDENT                                                                   
MORGAN COUNTY REA                                   PO BOX 738               FORT MORGAN      CO80701-073FRED GRANTHAM       9708675688GENERAL MAIBEW      0111 8                    5965 E 39TH AVENUE       DENVER           CO80207-123FORT MORGAN      CO807010738        ELECTRICAL                       20040202SHERILYN K WRIGHT   303398734900000170000025ASSISTANT                                                                   
BEVERLY HEALTHCARE HILLVIEW                         5600 FOX CHASE LANE      EXPORT           PA15632    JOHN FINK III       7247335371LR MGR    AFSCME    816                       160 PATCHWAY ROAD        DUNCANSVILLE     PA166358431DUNCANSVILLE     PA16635    20040630MEDICAL SERVICES                 20040202TED MANNA           814696024400000000000000STAFF REP                                                                   
CASE PAPER CO                                       499 E TIOGA ST           PHILADELPHIA     PA19134    AARON GREENE        2155346500          IBT       107                       2845 SOUTHAMPTON ROAD    PHILADELPHIA     PA19154    PHILADELPHIA     PA19134    20040331PAPER PRODUCTS                   20040116WILLIAM HAMILTON    215552007000000130000025PRESIDENT                                                                   
PENN JERSEY PAPER CO                                2801 RED LION RD         PHILADELPHIA     PA19154    KATHY MCGOVERN      2156719800          IBT       107                       2845 SOUTHAMPTON ROAD    PHILADELPHIA     PA19154    PHILADELPHIA     PA19134    20040331PAPER                            20040116JOE FERHLE          215552007000000870000100BA                                                                          
NORTHERN DISTRIBUTION                               4199 GILBRALTER COURT    STOCKTON         CA95206    JON SIFFING                   TRANS. MGRIBT       439                       1531 E. FREMONT ST.      STOCKTON         CA95201    STOCKTON         CA95201            TRANSPORTATION           20040109        JOE TAURIAC                   00003200000425BUS. REP                                                                    
CVS PHARMACY                                        1 CVS DRIVE              WOONSOCKET       RI02895    JOHN IADEROSA       4017703207DIR LS    UFCW      23                        345 SOUTHPOINTE BLVD     CANONSBURG       PA15317    CANONSBURG       PA15317    20040327DRUG STORE SALES                 20040202PAUL R BROPHY       724514322800000850000000DIR C/BARG                                                                  
ASHTABULA COUNTY HOME                               DIBBLE ROAD              ASHTABULA        OH44004    MARY LOU CHATTERBUCK3307924500HR MGR    AFSCME                              POB 1197                 ASHTABULA        OH44004    ASHTABULA        OH44004            HOME FOR AGED            2003121920031219DEBBY BENDIS                  00000720000102BA                                                                          
AGC (5)                                             P.O. BOX 27005           LANSING          MI48909    DON BOVRE           5173711550DLR       BAC       9MI                       3321REMY DRIVE           LANSING          MI48906    LANSING          MI48906                                             20040112DARYL HOLLENBACK    517886978100000000000000PRESIDENT                                                                   
KENNYWOOD GIANT EAGLE (NNH 2 INC)                   1400 HOFFMAN BLVD        WEST MIFFLIN     PA15122    ROBERT E SINGER     4124613230          UFCW      23                        345 SOUTHPOINTE BLVD     CANONSBURG       PA15317    PITTSBURGH       PA15201    20040327GROCERY SALES                    20040202JAMES E SLIVOSKY    724514322800001430000000AREA DIR                                                                    
EPIC METALS CORPORATION                             11 TALBOT AVE            RANKIN           PA15104    DAVID LANDIS        4123513913          BSOIW     527                       2945 BANKSVILLE ROAD     PITTSBURGH       PA15216    BRADDOCK         PA15104    20040414STEEL PRODUCTS                   20040202ERNIE HEINAUER      412341618000000270000000BUS AGENT                                                                   
ALLEN GAUGE & TOOL COMPANY                          421 NORTH BRADDOCK AVE   PITTSBURGH       PA15208    ROBERT ALLEN        4122416410          BSOIW     527                       2945 BANKSVILLE ROAD     PITTSBURGH       PA15216    PITTSBURGH       PA15208    20040313AUTOMATED MACHINES               20040202ERNIE HEINAUER      412341618000000150000000BUS AGENT                                                                   
SAFETY GUARD STEEL FABRICATING COMPANY              113 LINCOLN AVE          PITTSBURGH       PA15209    DAVID CAMPBELL      4128213533          BSOIW     527                       2945 BANKSVILLE ROAD     PITTSBURGH       PA15216    PITTSBURGH       PA15209    20040331STEEL PRODUCTS                   20040202ERNIE HEINAUER      412341618000000090000000BUS AGENT                                                                   
UNIVERSAL REFRACTORIES 1                            P O BOX 97               WAMPUM           PA16157    TOM SYLVESTER       7245354374CFO       USA       6346-06                   1945 LINCOLN HWY         NORTH VERSAILLES PA15137    WAMPUM           PA16157    20040331MOLDS                            20040202ELMER BLOOM         412824814000000510000125STAFF REP                                                                   
UNIVERSAL SPECIALTIES PLANT 2                       P O BOX 97               WAMPUM           PA16141    DAVID MCKENZIE      7245354374PLANT MGR USA       6346-07                   1945 LINCOLN HWY         NORTH VERSAILLES PA15137    WAMPUM           PA16157    20040331MOLDS                            20040202ELMER BLOOM         412824814000000100000020STAFF REP                                                                   
INTERNATIONAL STAPLE & MACHINE COMPANY              P O BOX 629              BUTLER           PA16003    MARK KANIA          7242877711HR        USA       8042-03                   1945 LINCOLN HWY         NORTH VERSAILLES PA15137    BUTLER           PA16003    20040331WELDING RODS & NAIL GUNS         20040202ELMER BLOOM         412824814000002000000250                                                                            
MILLCRAFT SMS                                       770 BRADDOCK AVE         PITTSBURGH       PA15112    ROBERT CONNELY      4128234280GEN MGR   USA       3403-45                   1945 LINCOLN HWY         NORTH VERSAILLES PA15137    PITTSBURGH       PA15201    20040331REBUILD CASTER SEGEMENTS         20040202JOHN RATICA         412824814000000500000060STAFF REP                                                                   
ZEUS ALUMINIM PRODUCTS USA INC (ALUMINUM)           RR 6 BOX 20              LATROBE          PA15650    C T STOREY          7245322001          USA       3403-42                   1945 LINCOLN HWY         NORTH VERSAILLES PA15137    LATROBE          PA15650    20040331ALUMINUM PRODUCTS                20040202JOHN RATICA         412824814000000250000030STAFF REP                                                                   
GREBES BAKERIES INC                                 5132 W LINCOLN AVE       WEST ALLIS       WI53219    JAMES GREBE JR      4145437001PRESIDENT IBT       200                       PO BOX 2073              MILWAUKEE        WI53201    MILWAUKEE        WI53201    20040331BAKERY PRODUCTS                  20040128DENNIS THOMAS       414771636300000190000000BUS REP                                                                     
KNOUSE FOOD COOPERATIVE                             800 PEACH GLENN IDAVILLE PEACH GLENN      PA17376    JERRY NETH                    PERS MGR  UFCW      1776                      3161 CHAMBERSBURG ROAD   BIGLERVILLE      PA17307    PEACH GLEN       PA17375    20040327FINANCIAL SERVICES               20040202RUSSELL J FOWBLE    717334006400003210000280VICE PRES                                                                   
TOM DONAHUE TRUCKING INC                            4653 WEST ELECTRIC AVENUEMILWAUKEE        WI53219    THOMAS DONAHUE JR   4146437710          IBT       200                       PO BOX 2073              MILWAUKEE        WI53201    MILWAUKEE        WI53213    20040331TRUCKING                         20040128CHRIS HOOSER        414479364700000060000000BUS REP                                                                     
PENNSYLVANIA STATE EMPLOYEES CREDIT UNION           P O BOX 67013            HARRISBURG       PA171067013CATHY TROUTMAN      7177201113VP HR     UFCW      1776                      3161 CHAMBERSBURG ROAD   BIGLERVILLE      PA17307    HARRISBURG       PA17106    20040430FINANCIAL SERVICES               20040202RUSSELL J FOWBLE    717334006400003210000380VICE PRES                                                                   
WHISPERING PINES TRUCKING INC                       S63 W3160 ROAD X         MUKWONAGO        WI53149    MARY SIMS           4143922427PRESIDENT IBT       200                       PO BOX 2073              MILWAUKEE        WI53201    MILWAUKEE        WI53213    20040331TRUCKING                         20040128CHRIS HOOSER        414479364700000010000000BUS REP                                                                     
ENVIORSOURCE TECHNOLOGIES (ENVIOR SOURCE)           1155 BUSINESS CENTER DR  HORSHAM          PA190443454JOHN P CARROLL      2159565509VP HR     USA       5852-20                   1945 LINCOLN HWY         NORTH VERSAILLES PA15137    MC KEESPORT      PA15130    20040331WASTE DISPOSAL SERVICE           20040202DENNIS FLEMING      412824814000000100000010STAFF REP                                                                   
OLYMPUS BUILDING SERVICES (NATL MARITIME INTELL CTR)244 S MAIN ST            NEW HOPE         PA18938    ANTHONY HIPPLE      2158625066          IUOE      99                        2461 WISCONSIN AVE NW    WASHINGTON       DC20007    WASHINGTON       DC20001    20040331BUILDING OPERATIONS              20040202MICHAEL R MURPHY    202337009900000100000000BUS MGR                                                                     
VICTORY VAN CORPORATION (HUD)                       950 S PICKETT ST         ALEXANDRIA       VA22314    STEPHEN HENEGAR                         IUOE      99                        2461 WISCONSIN AVE NW    WASHINGTON       DC20007    WASHINGTON       DC20001    20040331BUILDING OPERATIONS              20040202MICHAEL R MURPHY    202337009900000190000000BUS MGR                                                                     
GCA SERVICE SOLUTIONS INC (LIMERICK & 3 MILE ISLAND)100 FOUR FALLS CORP CTR  WEST CONSHOHOCKENPA19428    DWIGHT D SYPOLT     6108347555          SEIU      36                        42 S 15TH ST STE 200     PHILADELPHIA     PA19102    CONSHOHOCKEN     PA19428    20040331                                 20040129WYATT CLOSS         215226360000000150000002TRUSTEE                                                                     
GENERAL FELT INDUSTRIES INC FOAMEX                  259 CANAL RD             FAIRLESS HILLS   PA19030    BRENDA SLATE        2157368611HUM RES   SEIU      36                        42 S 15TH ST STE 200     PHILADELPHIA     PA19102    FAIRLESS HILLS   PA19030    20040415FOAMEX PRODUCTS                  20040129WYATT CLOSS         215226360000000440000002TRUSTEE                                                                     
ALLEGHENY COUNTY PUBLIC HEALTH                      436 GRANT ST RM 101      PITTSBURGH       PA15219    DAN ONORATO                   COUNTY CE OPEIU     802                       5100 TILGHMAN ST STE 365 ALLENTOWN        PA18104    PITTSBURGH       PA15222    20040731MEDICAL SERVICES                 20040129ERIC SANOBA         724548127700000630000000LAB REP                                                                     
PPG INDUSTRIES                                      ONE PPG PLACE            NOT PROVIDED                JERRY SMITH         4124343456          IBT       311                       416 EASTERN BLVD         BALTIMORE        MD21221    BALTIMORE        MD21201    20040331AUTO REPLACEMENT GLASS           20040129NEIL DIXON          410686225000000050000000PRESIDENT                                                                   
CHEMCENTRAL MILWAUKEE                               PO BOX 510156            NEW BERLIN       WI53151    TONY FECK           2627974066PLT MGR   IBT       200                       PO BOX 2073              MILWAUKEE        WI53201    MILWAUKEE        WI53213    20040331                                 20040128FRANK ARDELLINI     414479264200000150000000BUS REP                                                                     
CAPITAL LIGHTING                                    600 W HAMBURG ST         BALTIMORE        MD21230    DEBBIE FRYE         4107524080          IBT       311                       416 EASTERN BLVD         BALTIMORE        MD21221    BALTIMORE        MD21201    20040331ELECTRICAL SUPPLIES              20040129KENNETH KELM        410686225000000050000000SECY TREAS                                                                  
COURTYARD BY MARRIOTT FAIRFIELD INN ANN ARBOR MI    1010 WISCONSIN AVE NW    WASHINGTON       DC20007    JEFF WADE                               HERE      24                        18600 WEST TEN MILE ROAD SOUTHFIELD       MI48075    ANN ARBOR        MI48108    20040331HOSPITALITY SERVICES             20040128ELLEN J CHASE       248569709000000600000070ADMN ASST                                                                   
COSTCO WHOLESALE                                    999 LAKE DRIVE           ISSAQUAH         WA98027    JACK STEPHENS       4253138540LAB RELS  IBT       311                       416 EASTERN BLVD         BALTIMORE        MD21221    NEW YORK         NY10001    20070315WHOLESALE SHOPPING SVCS          20040109STEPHEN BERR        410686225000008000000000                                                                            
PENSKE TRUCK LEASING COMPANY (READING LEESPORT)     RT 10 BOX 563 GREEN HILLSREADING          PA19603    ROB MARTENEY        6107756208HR LR     IBT       429                       1055 SPRING ST           WYOMISSING       PA19610    READING          PA19602    20040331TRUCK LEASING                    20040109WILLIAM M SHAPPELL  610320552100000150000030PRESIDENT                                                                   
CANTEEN SERVICES INC  (@ LANSING CAR ASSEMBLY)      PO BOX 390               BELMONT          MI49306    JEFF TIGGLEMAN      8002347650          HERE      24                        18600 WEST TEN MILE ROAD SOUTHFIELD       MI48075    LANSING          MI48901    20040331                                 20040128ELLEN J CHASE       248569709000000150000050ADMN ASST                                                                   
PENSKE TRUCK LEASING COMPANY (POTTSVILLE)           RT 10 BOX 563 GREEN HILLSREADING          PA19603    ROB MARTENEY        6103207111HR LR     IBT       429                       1055 SPRING ST           WYOMISSING       PA19610    POTTSVILLE       PA17901    20040331TRUCK LEASING                    20040109WILLIAM M SHAPPELL  610320552100000040000020PRESIDENT                                                                   
ARAMARK SERVICES INC FOR BANK ONE                   611 WOODWARD             DETROIT          MI48226    PETER VERBRUGGAN    3132252424          HERE      24                        18600 WEST TEN MILE ROAD SOUTHFIELD       MI48075    DETROIT          MI48226    20040321                                 20040128ELLEN J CHASE       248569709000000150000050ADMN ASST                                                                   
CPC LOGISTICS INC                                   1 B COMMERCIAL AVE       WASH COURT HOUSE OH43160    EDY LONGSTREATH     8002743750          IBT       249                       P O BOX 40128            PITTSBURGH       PA152010128MC KEES ROCKS    PA15136    20040331LOGISTICS                        20040120GARY R ALWARD       412682370000000020000000REC SECY                                                                    
MILLER THOMAS GYEKIS CORP INC                       3341 STAFFORD ST         PITTSBURGH       PA15204    RAYMOND R HEBERLE PE4123314610EXEC VP   IBT       249                       P O BOX 40128            PITTSBURGH       PA152010128PITTSBURGH       PA15204    20040331ROOFING & SHEET METAL            20040120ROCCO DIFILIPPO     412682370000000010000000BUS AGENT                                                                   
GREAT LAKES METAL BUILDING ERECTORS ASSOCIATION     2323 N LARCH STREET      LANSING          MI48906    DONALD BOVRE        5173711550          BSOIW     25                        PO BOX 965               NOVI             MI48376    NOVI             MI48374    00000000                                 20040128PATRICK GLEASON     248344949400003000000300BUS MGR                                                                     
MODERN BUILDERS SUPPLY                              2301 BEAVER AVE          PITTSBURGH       PA15233    BOB FREILBERG       4123224100BRANCH MGRIBT       249                       P O BOX 40128            PITTSBURGH       PA152010128PITTSBURGH       PA15233    20040331BUILDING SUPPLIES                20040120JAMES W COWAN       412682370000000100000000SECY TREAS                                                                  
PITTSBURGH TRANSPORTATION COMPANY                   1301 BEAVER AVE          PITTSBURGH       PA15233    JAMES D CAMPOLONGO  4123229113PRES CEO  IBT       249                       P O BOX 40128            PITTSBURGH       PA152010128PITTSBURGH       PA15233    20040331                                 20040120WAYNE B SHATKOFF    412682370000001310000000PRESIDENT                                                                   
HASER TRUCKING INC (MECHANICS)                      1023 NORTH AVENUE        PITTSBURGH       PA15209    EDWARD HASER        4122821139PRESIDENT IBT       249                       P O BOX 40128            PITTSBURGH       PA152010128PITTSBURGH       PA15209    20040215TRUCKING                         20040120GARY R ALWARD       412682370000000020000000REC SECY                                                                    
AGC DETROIT CHPTR/MICHIGAN CONVEYOR MFG ASSOC                                DETROIT          MI48216    M P SMITH/M FITZGRLD0000000000          BSOIW     25                        PO BOX 965               NOVI             MI48376    DETROIT          MI48216    20040531                                 20040128PATRICK GLEASON     248344949400000000000000BUS MGR                                                                     
PENRECO                                             138 PETROLIA ST          KARNS CITY       PA16041    DAVE BAUM           7247569252TRAFF MGR IBT       926                       625 STANWIX ST STE 1804  PITTSBURGH       PA15222    KARNS CITY       PA16041    20040331CHEMICAL HAULING                 20040116CHARLES M BYRNES    412281463300000120000000SECY TREAS                                                                  
GREAT LAKES FABRICATORS AND ERECTORS ASSOCIATION                             DETROIT          MI48216    HR DIR                                  BSOIW     25                        PO BOX 965               NOVI             MI48376    DETROIT          MI48216    20040531                                 20040128PATRICK GLEASON     248344949400000000000000BUS MGR                                                                     
GREAT LAKES TARNSPORT & TERMINAL                    P O BOX 281              INDUSTRY         PA15052    TOM GIMBUS          7246439450TRAFF MGR IBT       926                       625 STANWIX ST STE 1804  PITTSBURGH       PA15222    INDUSTRY         PA15052    20040331PACK & STORE SOLVENTS            20040123CHARLES M BYRNES    412281463300000020000000SECY TREAS                                                                  
PSC ENVIRONMENTAL SERVICES (PHILIPS SERVICES INDUST)2324 VERNSDALE RD        ROCK HILL        SC29730    JAMES ROBINSON      8033245319DIR HR    IBT       926                       625 STANWIX ST STE 1804  PITTSBURGH       PA15222    ROCK HILL        SC29730    20040331TANK CLEANING                    20040114CHARLES M BYRNES    412281463300000100000000SECY TREAS                                                                  
CEDAR GLEN LAKES                                    MICHIGAN AVE             WHITING          NJ08759    CHRIS ROMAN         7323402223MANAGER   IBT       35                        620 US ROUTE 130         TRENTON          NJ08691    MANCHESTER TOWNSHNJ08759    20040331MAINTENANCE SERVICES             20040109DANIEL KREISER      609585440000000090000009SECY TREAS                                                                  
CAMBRIDGE LEE IND PLANT 5                           P O BOX 14026            READING          PA19612    ALAN HOHL           6109264141HR REP    USA       6996                      2460 BLVD OF GENERALS    NORRISTOWN       PA194033660READING          PA19612    20040331COPPER TUBES PIPES               20040128A STEVEN GOMBOS     610631817000000270000500                                                                            
LEWIS & MICHAEL INC                                 1827 WOODMAN DR          DAYTON           OH45420    DAVE LEWIS          9372526683PRESIDENT IBT       957                       2719 ARMSTRONG LN B 13357DAYTON           OH45413    DAYTON           OH45401    20040301                                 20040128KEITH JONES         937278578100000040000000BUS REP                                                                     
STANDARD DISTRIBUTION COMPANY                       913-915 S HEALD ST       WILMINGTON       DE19899    MICHAEL FUSCA       3026555515OPERS MGR IBT       326                       451 E NEW CHURCHMANS RD  NEW CASTLE       DE19720    NEW CASTLE       DE19720    20040331LIQUOR DELIVERY                  20040126JOSEPH W SMITH      302328238700000600000060SECY TREAS                                                                  
B W STETSON                                         6 BUCKSHUTEM ROAD        BRIDGETON        NJ08302    JAMES CRILLEY       6094552200          IBT       830                       12298 TOWNSEND RD        PHILADELPHIA     PA19154    BRIDGETON        NJ08302    20040331VENDING SERVICES                 20040112DANIEL H GRACE      215671985000000100000000SECY TREAS                                                                  
MOBIL OIL REFINING AND SUPPLY COMPANY (TERMINAL)    15941 S HARLEM AVE 347   TINLEY PARK      IL60477    DEBRA ELLIS         7087385037          IBT       283                       1625 FORT STREET         WYANDOTTE        MI48192    WYANDOTTE        MI48192    20040430                                 20040128MICHAEL FINEGAN     734282885000000040000000BUS REP                                                                     
MCKNIGHT PROPERTIES                                 249 N CRAIG ST           PITTSBURGH       PA15213    MICHAEL LOCKE       4122819000PRESIDENT IUOE      95                        300 SALINE ST            PITTSBURGH       PA15207    PITTSBURGH       PA15213    20040331MAINTENANCE SERVICES             20040112THOMAS J MOORE      412422470200000010000000ASST B/MGR                                                                  
ANDRES LOUNGE                                       1337 N SUMMIT ST         TOLEDO           OH43604    DOUG SFAELOS        4192489201OWNER     HERE      84                        933 N SUMMIT ST          TOLEDO           OH43604    TOLEDO           OH43604    20040331                                 20040128RONALD STORMER      419244867800000040000000BUS MGR                                                                     
LAND O LAKES INC                                    P O BOX 64101            ST PAUL          MN551640101FRANK J KUNICK      6514812222          BCTGM     357G                      238 PHILIP               EPHRATA          PA17522    HARRISBURG       PA17101    20040331ANIMAL FEED                      20040114JOSEPH S SARDINA    717738392600000400000056INTL REP                                                                    
HARTLAND CONCRETE PRODUCTS INC                      PO BOX 189               ONALASKA         WI54650    STEVE MATHY         6087836411PRESIDENT LIUNA     140                       1920 WARD AVE STE 10     LA CROSSE        WI54601    ONALASKA         WI54650    20040331CONCRETE PRODUCTS                20040128KEVIN D LEE         608788109500000200000032BUS MGR                                                                     
JAYCEE FOODS INC                                    751 LINCOLN AVE          CHARLEROI        PA15022    DANA SHIREFFS       7244836592          IBT       585                       1 S COLLEGE ST           WASHINGTON       PA15301    WASHINGTON       PA15301    20040329WHOLESALE MEATS                  20040202JAMES A BEROS       724225646500000030000000PRESIDENT                                                                   
TOLEDO DISTRICT NURSES ASSOCIATION                  1946 NORTH 13TH STREET   TOLEDO           OH43624    MARTI MURRAY        4192550983DIR OPERS ANA       OHNA                      4000 EAST MAIN STREET    COLUMBUS         OH43213    TOLEDO           OH43624    20040515MEDICAL SERVICES                 20040128CATHLEEN SLATER     614448103500000100000015L/RELS SPT                                                                  
UGI UTILITIES INC (READING AREA)                    100 KACHEL BLVD STE 400  READING          PA19612    JAMES L BUDD        6107963538          PPF       600                       420 NORTH 14TH ST        READING          PA19604    READING          PA19601    20040331GAS                      20040202        RICKY D DENUNZIO    610376942500000160000340                                                                            
DETROIT NEWSPAPER AGENCY                            615 W LAFAYETTE BLVD     DETROIT          MI48226    TIMOTHY KELLEHER    3132222424L/RELS    IBEW      58                        1358 ABBOTT ST           DETROIT          MI48226    DETROIT          MI48226    20040501NEWSPAPERS                       20040128MICHAEL MORAN       313963213000000310000300BUS REP                                                                     
ROYAL ELECTRIC COMPANY                              3233 HUNTING PARK AVE    PHILADELPHIA     PA19129    PAUL SCHIMMEL       2152211200          IBT       115                       2833 COTTMAN AVE         PHILADELPHIA     PA19149    PHILADELPHIA     PA19019    20040331ELECTRICAL SUPPLIES              20040202JAMES E SMITH JR    215335010000000000000000SECY TREAS                                                                  
CINTAS CORPORATION                                  6800 CINTAS BLVD B 625737CINCINNATI       OH45262    LARRY FULTZ         5135733751          IBT       332                       1502 S DORT HIGHWAY      FLINT            MI48503    LANSING          MI45262    20040331LAUNDRY SERVICES                 20040127RICK HODGESON       810767733000000450000045BUS AGENT                                                                   
ROI TECHNOLOGIES                                    175 W OSTEND ST          BALTIMORE        MD21230    HENRY SCHUFFLER     4105761111          GCIU      582M                      7701 BELAIR ROAD         BALTIMORE        MD21236    BALTIMORE        MD21201    20040331BEVERAGE LABELS                  20040202PATRICK OHARE       410668818500000140000060PRESIDENT                                                                   
ROI TECHNOLOGIES INC                                175 W OSTEND ST          BALTIMORE        MD21230    JOHN TIMOTHY ROBERTS4105761111          GCIU      285M                      6210 N CAPITOL ST NW     WASHINGTON       DC20011    BALTIMORE        MD21230    20040331PRINTING                         20040202EDWARD E WILLIAMS   202228300000000210000021PRESIDENT                                                                   
LIBERTY LOGISTICS LLC                               5200 COMLY ST            PHILADELPHIA     PA19135    DOMINIC MARANO      2156987500          IBT       837                       12275 TOWNSEND ROAD      PHILADELPHIA     PA19154    PHILADELPHIA     PA19135    00000000WAREHOUSE BEVERAGES              20040130JOHN C DULCZAK      215673050000000030000007PRESIDENT                                                                   
HOLIDAYSBURG AMERICAN LEGION AMBULANCE SERVICE INC  801 SCOTCH VALLEY RD     HOLIDAYSBURG     PA16648    MICHAEL PARISI      8146951421ASST MGR  USA       6521-10                   519 SOMERSET ST STE 1    JOHNSTOWN        PA15901    HOLLIDAYSBURG    PA16648    20040330MEDICAL SERVICES                 20040128ERNEST J ESPOSITO   814535762100000410000041SUB DIR                                                                     
GRECO GAS INC                                       450 GRANTHAM ST          TARENTUM         PA15084    JOSEPH GRECO JR     7242263800OWNER     PACE      2-0240                    1047 GRANDVIEW ROAD      OIL CITY         PA16301    TARENTUM         PA15084    20040324INDUSTRIAL GAS                   20040123JAMES W FINK JR     814676388800000070000007INTL REP                                                                    
PRINC INSTRUMENTS INC                               1020 INDUSTRIAL HWY      SOUTHAMPTON      PA18966    KEN LWOERSTERN      2153551500          IAM       159                       320 COATES ST            BRIDGEPORT       PA19405    SOUTHAMPTON      PA18966    20040331INDUSTRIAL THERMOMETERS          20040128BILL WHEELER        610277203000000090000015BUS REP                                                                     
BFI WASTE SYSTEMS OF NORTH AMERICA INC (PITTSBURGH) P O BOX 448              CARNEGIE         PA15106    BRAD GREEN          4124292600DIST MGR  IAM       DISTRICT 83               96 S 26TH ST             PITTSBURGH       PA15203    PITTSBURGH       PA15201    20040331WASTE DISPOSAL SERVICES          20040128TODD R FICHERA      412381646400000210000100BUS REP                                                                     
RITE AID CORPORATION CLEVELAND AREA                 PO BOX 3165              HARRISBURG       PA17105    NIELS HANSEN        7179723904          UFCW      880                       2828 EUCLID AVENUE       CLEVELAND        OH44115    CLEVELAND        OH44115    20040403                                 20040121MIKE KRZYS          216241593000003000000450COOR                                                                        
COIN AUTOMATIC LAUNDRY EQUIPMENT CO                 P O BOX 1239             WEST CHESTER     PA19380    JOHN MCCLEAF        6106925600ASST PRES IBEW      1158                      1149 BLOOMFIELD AVE      CLIFTON          NJ07012    WEST CHESTER     PA19380    20040331INSTALL LAUNDRY EQUIPMENT        20040128LOU GRAZIANO        973773333600000630000090BUS AGENT                                                                   
GENEVA GIANT EAGLE                                  755 SOUTH BROADWAY       GENEVA           OH44041    BRUCE ARCHINAL      4404665738          UFCW      880                       2828 EUCLID AVENUE       CLEVELAND        OH44115    CLEVELAND        OH44115    20040404GROCERY SALES                    20040121TIM FERGUS          216241593000000910000091REP                                                                         
ADT SECURITY SYSTEMS INC                            602 OFFICE CTR DR STE 150FT WASHINGTON    PA190343216JOHN SUMMERS        2156547450DLR       CWA       3802                      2474 CLAY ST             CHATTANOOGA      TN37406    CHATTANOOGA      TN37406    20040229SECURITY SYSTEMS                 20040126DOUG STEARMAN       615331489000000200000020REP                                                                         
KUTZTOWN PUBLISHING COMPANY                         15076 KUTZTOWN ROAD      KUTZTOWN         PA195300346MICHAEL DOOLEY      6106837341          GCIU      4C                        2 WEST BALTIMORE PIKE    CLIFTON HEIGHTS  PA190182201KUTZTOWN         PA19530    20040331PRINTING                         20040112JAMES MURPHY        610622302200000200000070                                                                            
EMSCO ERIE INC                                      306 SHENANGO ST          GIRARD           PA16417    DAVID OAS                     PRESIDENT USA       3199-3                    703 FRENCH ST            ERIE             PA16501    GIRARD           PA16417    20040331GARDEN TOOLS                     20040122WILLIAM O WOLFRAM   814455133700000090000015STAFF REP                                                                   
COCA COLA ENTERPRISES                               230 A SOUTH 10TH ST      LEMOYNE          PA17043    PAM DENMARK                             IBT       401                       260 S WASHINGTON ST      WILKES BARRE     PA18701    WILKES BARRE     PA18701    20040325SOFT DRINKS                      20040128PATRICK D CONNORS   570823312100000630000000                                                                            
AMERICAN ELECTRIC POWER                             PO BOX 118               PICKERINGTON     OH43147    JIM BARTLETT        6145805140L/RELS MGRUMW                                 2306 S FAYETTE STREET    BECKLEY          WV25801    PICKERINGTON     OH43147    20040331                                 20040120BOBBY WEBB          703208723400001200000150                                                                            
WEBSTER MANUFACTURING COMPANY DIV WEBSTER IND CO    325 HALL STREET          TIFFIN           OH44883    GEORGE TOLFORD      4194478232PLT MGR   GMP       45B                       608 E BALTIMORE PIKE     MEDIA            PA19063    TIFFIN           OH44883    20040331                                 20040123BRUCE R SMITH       610892965700000430000120INTL VP                                                                     
C A LAWTON COMPANY                                  1950 ENTERPRISE DR B 330 DE PERE          WI54115    SALLIE CASTLE       9203372470HR MGR    GMP       271                       500 NORTHWEST PLAZA S 418SAINT ANN        MO63074    DE PERE          WI54115    20040403                                 20040123RALPH SIDEBOTTOM    314739321000000130000000INTL VP                                                                     
CUSTOM HOISTS INC                                   771 CR 30A WEST          HAYESVILLE       OH44838    GARY CARPENTER      4193684721EX VP     USA       7008                      1340 WEST 4TH STREET     MANSFIELD        OH44906    HAYESVILLE       OH44838    20040523                                 20040126BILLY COLLINS       419529879200001000000135BUS REP                                                                     
PROFESSIONAL MAINTENANCE OF CHARLESTON              624 MARYLAND AVENUE      CHARLESTON       WV25302    ROGER LAWRENCE      3043439531PRESIDENT IAM       656 DL 34                 801 MAIN AVENUE          NITRO            WV25143    NITRO            WV25143    20040331                                 20040126JOSEPH GRESHAM      304755430800000250000030BR                                                                          
MILWAUKEE REPERTORY THEATER                         108 EAST WELLS STREET    MILWAUKEE        WI53202    TIMOTHY J SHIELDS   4142241761MGR DIR   IATSE     18                        230 W WELLS ST 405       MILWAUKEE        WI53203    MILWAUKEE        WI53202    20040630                                 20040126PAUL FRIDAY         414272354000000080000008BUS AGENT                                                                   
PEMCO JARVIS CASTER GRP (KALAMAZOO)                 1872 RAVINE ROAD         KALAMAZOO        MI48180    TONY NELSON                   VP OPERS  USA       6277                      13233 HANCOCK DRIVE      TAYLOR           MI48180    TAYLOR           MI48180    20000401                                 20040126LARRY BRYANT        734374820000000950000105STAFF REP                                                                   
EMPIRE SAND AND GRAVEL                              PO BOX 30318             BILLINGS         MT59107                        4062528465          MULTI                               208 EAST MAIN            MISSOULA         MT59802    BILLINGS         MT59107    20040331                                 20040126DAN DOOGAN          406543347200000000000000PRESIDENT MULTI=MULTIPLE UNIONS-LIUNA IUOE IBT OPCM CJA                     
JTL GROUP BILLINGS                                  PO BOX 8066              BILLINGS         MT59108                        4062557126          MULTI                               208 EAST MAIN            MISSOULA         MT59802    BILLINGS         MT59108    20040331                                 20040126DAN DOOGAN          406543347200000000000000PRESIDENT MULTI=MULTIPLE UNIONS-LIUNA IUOE IBT OPCM CJA                     
BIG BROTHERS BIG SISTERS OF GREATER LANSING INC     1235A CENTER STREET      LANSING          MI48906    ED HAGAN            5173720160EX DIR    OPEIU     459                       838 LOUISA ST STE A      LANSING          MI48911    LANSING          MI48906    20040401COMMUNITY SERVICES               20040126JOSEH DARBY         517887884400000050000007SVCS REP                                                                    
SEVEN UP CINCINNATI (INSIDE UNIT)                   5151 FISCHER PLACE       CINCINNATI       OH45217    MARK H WENDLING     5132425151          IBT       1199 CO 26                2100 OAK ROAD            CINCINNATI       OH45241    CINCINNATI       OH45217    20040401SOFT DRINKS                      20040126RANDALL W VERST     513721411600000200000100PRESIDENT                                                                   
SEVEN UP CINCINNATI                                 5151 FISCHER PLACE       CINCINNATI       OH45217    MARK H WENDLING     5132425151          IBT       1199 CO 26                2100 OAK RD              CICNCINNATI      OH45241    CINCINNATI       OH45217    20040401SOFT DRINKS                      20040126RANDALL W VERST     513721411600000600000100PRESIDENT                                                                   
JOHNSON DIVERSEY                                    3630 E KEMPER ROAD       SHARONVILLE      OH45241    DENNIS KALNAS       5135544200PLT MGR   CWA       774                       8321 JADWIN STREET       CINCINNATI       OH45216    CINCINNATI       OH45241    20040414                                 20040126RICHARD A SNOW      513761919000000820000300PRESIDENT                                                                   
STORA ENSO NORTH AMERICA                            231 FIRST AVE N POB 8050 WISCONSIN RAPIDS WI54495    WILLIAM A SMITH     7154223736DIR E/RELSPACE      70009 KIMBERLY WI         216 NORTH MAIN STREET    KIMBERLY         WI54136    KIMBERLY         WI54136    20040501                         20040126        JEFFREY J WELLHOUSE 920788602200006070000719PRESIDENT                                                                   
NORSE DAIRY SYSTEMS                                 PO BOX 1819              COLUMBUS         OH43216    BRIAN MCGINTY       6142944931          UFCW      379                       1571 PARSONS AVENUE      COLUMBUS         OH43207    COLUMBUS         OH43216    20040404DAIRY PRODUCTS                   20040126JOHN E MOORE        614443881100001500000175                                                                            
MEIJER INC                                          2929 WALKER AVE NW       GRAND RAPIDS     MI49544    WINDY RAY SR        6164536711VP PERS   UFCW      1059                      4150 E MAIN ST           COLUMBUS         OH43213    COLUMBUS         OH43213    20040404                                 20040126GREG BEHNKE         614237767100001650000000SECY TREAS                                                                  
UNITED DAIRY INC                                    300 N FIFTH STREET       MARTINS FERRY    OH43935    JOE CARSON JR       6146331451          UFCW      379                       1571 PARSONS AVENUE      COLUMBUS         OH43207    MARTINS FERRY    OH43935    20040331DAIRY PRODUCTS                   20040126JOHN E MOORE        614443881100000080000010                                                                            
AMERICAN EXCELSIOR                                  7920 KENTUCKY DRIVE      FLORENCE         KY410422915RYAN KING           8593720441PLT MGR   USA       156U 02                   1329 EAST KEMPER RD B 400CINCINNATI       OH45246    CINCINNATI       OH45246    20040331                                 20040126RON WARDRUP         513671879200000010000000STAFF REP                                                                   
CHESTER HOIST INC                                   PO BOX 229 ST RT 45      LISBON           OH44432    BOB BURKEY          3304247248GEN MGR   USA       337203                    4069 BRADLEY CIRCLE NW   CANTON           OH44718    LISBON           OH44432    20040331HOISTS                           20040126JOE HOLCOMB         330493772100000360000061STAFF REP                                                                   
CINCINNATI BULK TERMINALS                           895 WEST MEHRING WAY     CINCINNATI       OH45203    JACK WEISS          5136214800PRESIDENT USA       185823                                                                         CINCINNATI       OH45203    20040401                                 20040126RON WARDRUP         513671879200000270000000STAFF REP                                                                   
APPALACHIAN POWER COMPANY                           P.O. BOX 118             PICKERINGTON     OH43147    JAMES H BARTLETT    6145805140LABOR RLATUSA       8621                      642 MAIN STREET, REAR    BARBOURSVILLE    WV25504    WINFIELD         WV25213            ELECTRICITY              20040203        KAREN SHIPLEY       304639428000001960000282STAFF REPR                                                                  
TEKNOR APEX COMPANY, INC.                           505 CENTRAL AVENUE       PAWTUCKET        RI02861    WILLIAM MURRAY      4017258000SENIOR VICIBT       64                        54 NEW LONDON AVENUE     WEST WARWICK     RI02893    ATTLEBORO        MA02703    20040514CHEMICALS                        20040203RICHARD BERGERON    401823565600000620000100SECRETARY-                                                                  
TEAMSTERS LOCAL UNION NO. 142                       1300 CLARK ROAD          GARY             IN46404    RICHARD D KENNEY    2199491550SECRETARY-IBT       142                       1300 CLARK ROAD          GARY             IN46404    EAST CHICAGO     IN46312    20040331                                 20040203RICHARD D KENNEY    219949155000000030000003SECRETARY-                                                                  
COLUMBUS LIMESTONE                                  399 FRANK ROAD           COLUMBUS         OH43207    RONALD L MASON      6142349450LPA       USA       2303                      777 DEARBORN PARK LN S J COLUMBUS         OH43085    COLUMBUS         OH43207    20040331LIMESTONE PRODUCTS               20040126BILLY BOYCE         614888678400000550000000STAFF REP                                                                   
LEE MIDDLETON ORIGINAL DOLLS INC                    1301 WASHINGTON BLVD     BELPRE           OH45714    DAN CHRISTIAN       7404231717PLT MGR   USA       1497604                   51710 NATIONAL RD        SAINT CLAIRSVILLEOH43950    BELPRE           OH45714    20040430DOLLS                            20040126DENNY LONGWELL      740695463200000480000100STAFF REP                                                                   
TRUCK CAB COMPANY                                   PO BOX 58400             CINCINNATI       OH45258    JOHN WEBER          5139221300VP        USA       1473406                   1329 EAST KEMPER RD B 400CINCINNATI       OH45246    CINCINNATI       OH45238    20040331TRUCK CABS                       20040126DAVID W MCLEAN      513671879200000270000039STAFF REP                                                                   
US CAN                                              1902 OLD BUTLER RD       NEW CASTLE       PA16101    JACK J WERTMAN      7246527777R DIR HR  USA       4427                      950 YOUNGSTOWN WARREN RD NILES            OH44446    HUBBARD          OH44425    20040315STEEL CONTAINERS                 20040126GARY G STEINBECK    330505914000002220000300SD DIR                                                                      
WILLIAM POWELL COMPANY                              2503 SPRING GROVE AVE    CINCINNATI       OH45214    SALLY PHELPS        5138522000HR MGR    USA       185801                    1329 EAST KEMPER RD B 400CINCINNATI       OH45246    CINCINNATI       OH45214    20040325                                 20040126RON WARDRUP         513671879200000400000000STAFF REP                                                                   
MORRIS BEAN & COMPANY                               777 HYDE RD POB 108      YELLOW SPRINGS   OH45387    EDWARD MYERS        9377677301PRESIDENT USA       6931                      216 W MAIN ST            COLDWATER        OH45828    YELLOW SPRINGS   OH45387    20040331MANUFACTURING                    20040126GARY LUCAS          419678879200000970000120STAFF REP                                                                   
NEWARK ELECTRO PLATING                              30 E HARRISON            NEWARK           OH43055    CHRIS ZELEIN        7403498369GEN MGR   USA       34102                     777 DEARBORN PARK LANE SJCOLUMBUS         OH43085    NEWARK           OH43055    20040331                                 20040126BILLY BOYCE         614888678400000350000000STAFF REP                                                                   
ABC MILLWORK (A B C)                                P O BOX 40               EXCELSIOR        MN55331    XXX                                     IBT       221                       3001 UNIVERSITY AVE SE   MINNEAPOLIS      MN55414    EXCELSIOR        MN55331    20040331LUMBER MILLWORK                  20040202GEORGE C VOJTA JR   612331862000000900000000S T                                                                         
ANVIL INTERNATIONAL                                 1201 WEST 96TH STREET    MINNEAPOLIS      MN55432                                            IBT       221                       3001 UNIVERSITY AVE SE   MINNEAPOLIS      MN55414    MINNEAPOLIS      MN55432    20040315PLUMBING SUPPLIES                20040202GEORGE C VOJTA JR   612331862000000060000000S T                                                                         
DRYWALL SUPPLY                                      5421 QUAM AVENUE NE      ST MICHAEL       MN55376    XXX                                     IBT       221                       3001 UNIVERSITY AVE SE   MINNEAPOLIS      MN55414    SAINT MICHAEL    MN55376    20040401BUILDING SUPPLIES                20040202GEORGE C VOJTA JR   612331862000000270000042S T                                                                         
GOODIN COMPANY                                      2700 NORTH 2ND ST BX 9326MINNEAPOLIS      MN55440    XXX                                     IBT       221                       3001 UNIVERSITY AVE SE   MINNEAPOLIS      MN55414    MINNEAPOLIS      MN55440    20040314PLUMBING SUPPLIES                20040202GEORGE C VOJTA JR   612331862000000590000077S T                                                                         
OCH'S BRICK (EDINA MN)                              P O BOX 106              SPRINGFIELD      MN56087    XXX                                     IBT       221                       3001 UNIVERSITY AVE SE   MINNEAPOLIS      MN55414    SPRINGFIELD      MN56087    20040229BRICKS                           20040202GEORGE C VOJTA JR   612331862000000050000000S T                                                                         
SPS COMPANIES (S P S)                               6363 STATE HIGHWAY 7     ST LOUIS PARK    MN55416    XXX                                     IBT       221                       3001 UNIVERSITY AVE SE   MINNEAPOLIS      MN55414    MINNEAPOLIS      MN55416    20040315PLUMBING SUPPLIES                20040202GEORGE C VOJTA JR   612331862000000230000000S T                                                                         
KCCI TV HEARST CORPORATION                          888 NINTH ST             DES MOINES       IA50306    PAUL FREDERICKSON   5152478888PRES & GM IBEW      347                       850 EIGHTEENTH           DES MOINES       IA50314    DES MOINES       IA50306    20040322TELEVISION BROADCASTING  2004012020040202GERRY GRAUBERG      515243192400000200000125B M & F S                                                                   
CELEBRITY FOODS PRODUCTS INC                        1 ATLANTA PLAZA          ELIZABETH        NJ07206    NATT BARANY         9083518000OPNS. MGR.IBT       202                       12A NYC TERMINAL MARKET  BRONX            NY10474    ELIZABETH        NJ07206    20040320IMPORT/EXPORT FOOD PRODS         20040202LOUIS GONZALEZ      718328700000000180000000BA                                                                          
ELIZABETHTOWN COMMUNITY HOSPITAL                    PARK ST                  ELIZABETHTOWN    NY12932    JEAN DICKERSON      5188736377H R       NYSNA                               11 CORNELL ROAD          LATHAM           NY12110    ELIZABETHTOWN    NY12932    20040630MEDICAL SERVICES                 20040202SANDRA GUYNUP       518782940000000250000000NURSING RP                                                                  
BROOKS MEMORIAL HOSPITAL                            529 CENTRAL AVENUE       DUNKIRK          NY140482599JOAN M VAN DETTE    7163637260VP OF H R NYSNA                               11 CORNELL ROAD          LATHAM           NY12110    DUNKIRK          NY14048    20040630MEDICAL SERVICES                 20040202RUSSELL PELTON      518782940000001340000000NURSING RP                                                                  
GUILFOULE AMBULANCE                                 438 NEWELL ST            WATERTOWN        NY13601    MIKE JENNINGS          7888105OPER. MGR SEIU      200 UNITED SYRACUSE NY    1153 W FAYETTE ST/PO 1540SYRACUSE         NY13204    WATERTOWN        NY13601    20040630MEDICAL SERVICES                 20040202JERRY DENNIS           424175000000510000075PRESIDENT                                                                   
KNIGHT FACILITIES MANAGEMENT                        304 S NIAGARA ST         SAGINAW          MI48602    VIRGINIA KUENKER    9897938820          SEIU      200 UNITED SYRACUSE NY    1153 W FAYETTE ST/PO 1540SYRACUSE         NY13204    MASSENA          NY13662    20040331                                 20040202JERRY DENNIS           424175000000040000000PRESIDENT                                                                   
MEDICAL ASSOCIATES (WOODHULL HOSPITAL)              760 BROADWAY 10TH FLOOR  BROOKLYN         NY11206    GARY ASPENBERG      7189638579EX DIR    SEIU      10MD DC                   21 EAST 40TH ST 8TH FLOORNEW YORK         NY10016    BROOKLYN         NY11206    20040501MEDICAL SERVICES                 20040202KEVIN COLLINS       212532769000001800000000CONT ADMIN                                                                  
WINDSOR GARDENS CARE CENTER                         140 PARK AVENUE          EAST ORANGE      NJ07017    GEORGE SANDMAN      9736771500          SEIU      1199 NJ DIV OF 1199       4 ETHEL ROAD SUITE 405B  EDISON           NJ08817    EAST ORANGE      NJ07017            MEDICAL SERVICES                 20040202PAT HARRIS          732287811300000600000000                                                                            
TRACY LOGISTICS C&S                                 OLD FERRY RD/POB 821     BRATTLEBORO      VT05302    ROBERT SULLIVAN     8022576061          IBT       439                       P O BOX 1611             STOCKTON         CA95201    TRACY            CA95376                                             20040202SAM ROSAS           209948059200000300000050S T                                                                         
COCA COLA BOTTLING CO OF CAPE COD (CLERICAL)        ROUTE 130                SANDWICH         MA02563    JOHN LA FLAMME      5088882653          IBT       59                        27 SOUTH 6TH STREET      NEW BEDFORD      MA02740    SANDWICH         MA02563    20040403SOFT DRINKS                      20040107RICHARD FERNANDES   508993150500000030000000                                                                            
COCA COLA BOTTLING CO OF CAPE COD (PRODUCTION)      ROUTE 130                SANDWICH         MA02563    JOHN LA FLAMME      5088882653          IBT       59                        27 SOUTH 6TH STREET      NEW BEDFORD      MA02740    SANDWICH         MA02563    20040401SOFT DRINKS                      20040107RICHARD FERNANDES   508993150500000600000000                                                                            
PINE HILL SAND AND GRAVEL                           OLD WESTPORT ROAD        NORTH DARTMOUTH  MA02747    ROBERT MELLO        5089968665          IBT       59                        27 SOUTH 6TH STREET      NEW BEDFORD      MA02740    NORTH DARTMOUTH  MA02747            SAND & GRAVEL                    20040107RICHARD FERNANDES   508993150500000020000000                                                                            
STEAMSHIP AUTHORITY (TERMINAL & AGENCY)             P O BOX 284              WOODS HOLE       MA02543    FRED C RASKIN       8003527144          IBT       59                        27 SOUTH 6TH STREET      NEW BEDFORD      MA02740    WOODS HOLE       MA02543    20040416FERRY SERVICE                    20040107DAVID CABRAL        508993150500001020000000S T & E O                                                                   
SUBURBAN PLUMBING                                   1400 DAYTON AVENUE       ST PAUL          MN55104                        6129287259          IBT       120                       2635 UNIV AVE W 120      ST PAUL          MN55114    SAINT PAUL       MN55104    20040314PLUMBING SUPPLIES                20040105TOM RIEBE           651641190100000060000000BA                                                                          
ALLIED CONTRACTORS INC                              P O BOX 1605             RICHMOND         IN47375    H JOYCE MITCHELL    7659352199PRESIDENT IBT       135                       1233 SHELBY ST           INDIANAPOLIS     IN46203    RICHMOND         IN47374    20040331                                 20031229JERRY HADEN         765966257100000130000000BR                                                                          
ROMCO OF COLUMBUS INC                               1649 RICH ROAD           RICHMOND         IN47374    THOMAS R MITCHELL   7659660857PRESIDENT IBT       135                       1233 SHELBY ST           INDIANAPOLIS     IN46203    RICHMOND         IN47374    20040331TRI-AXLE DUMP TRUCK              20031229JERRY HADEN         765966257100000100000000BR                                                                          
KETCHAM PUMP CO                                     34-20 SIXTY FOURTH ST    WOODSIDE         NY11377    STEWART HRUSKA      7184570800PRESIDENT IBEW      3                         158-11 H V ARSDALE JR AVEFLUSHING         NY11365    WOODSIDE         NY11377    20040331WATER PUMPS                      20040129JAMES ROBSON        718591400000000050000000BR                                                                          
SUN CHEMICAL CORPORATION                            5020 SPRING GROVE AVENUE CINCINNATI       OH452321999DENNIS LAFFERTY     5136815950          IBEW      3                         158-11 H V ARSDALE JR AVEFLUSHING         NY11365    FLUSHING         NY11351    20040401PAINTS                           20040129JAMES ROBSON        718591400000000020000200BR                                                                          
TIME WARNER TELECOM                                 14 WALL ST               NEW YORK         NY10005    TONY BARBUTO        2123645544DIRECTOR  IBEW      3                         158-11 H V ARSDALE JR AVEFLUSHING         NY11365    NEW YORK         NY10005    20040331TELEPHONE SERVICE                20040128LANCE VAN ARSDALE   718591400000000180000000BR                                                                          
K C WILLIAMS INDUSTRIES INC (KC)                    P O BOX 176              NORTH READING    MA01864    MILTON HEFFRON      9786643101OWNER     IBT       49                        14 LOON HILL ROAD/POB 37 DRACUT           MA01826    NORTH READING    MA01864    20040331HAULING SAND & GRAVEL            20040123BERNARD L TYLER JR  978452912600000080000010PRES & BA                                                                   
ROY BROTHERS INC                                    764 BOSTON ROAD          BILLERICA        MA01866    ARTHUR ROY          9786671921OWNER     IBT       49                        14 LOON HILL ROAD/POB 37 DRACUT           MA01826    BILLERICA        MA01821    20040331                                 20040123BERNARD L TYLER JR  978452912600000050000050PRES & BA                                                                   
TARTAN TEXTILE SERVICES                             111 CHARLES STREET       UTICA            NY13502    ALFRED BARBATO      3157981221VICE-PRESIIBT       529                       129 EAST CHEMUNG PLACE   ELMIRA           NY14904    ELMIRA           NY14904            LAUNDRY/UNIFORM SUPPLY           20040128JAMES TUCKER        607733651900000250000125PRESIDENT                                                                   
HHS AUSTIN                                          100 N IH 35              AUSTIN           TX78767    ARLENE TILLMAN      5128544119ASST DIR  AFSCME                              100 N IH 35              AUSTIN           TX78767    AUSTIN           TX78767            HEALTH SERVICES          2004012820040128CAROL GUTHRIE       512854411900000080000015VP                                                                          
MN HOSPITAL ASSN (MNA)                              1700 UNIVERSITY AVENUE   ST PAUL          MN55104    MARK SORENSON       6512322000L R DIR   IUOE      70                        2417 LARPENTEUR AVE WEST ST PAUL          MN55113    ST PAUL          MN55104    20040430MEDICAL SERVICES                 20031117JANNELL NELSON      651646456600001250054500BR                                                                          
ON CENTER                                           800 S. STATE ST.         SYRACUSE         NY13202    JANET KEYHOE        3154358027HR MGR    HERE                                                                                     SYRACUSE         NY13202            HOTEL                    20040203                                      00000350000120                                                                            
BARNES AND CONE                                     PO BOX 280               SYRACUSE         NY13206    RICHARD ROACH       3154370305PRESIDENT IBT       317                       566 SPENCER STREET       SYRACUSE         NY13204    SYRACUSE         NY13206    20040430BUILDING SUPPLIES                20040204JOHN J RUFFO        315471416400000090000009BUSINESS A                                                                  
NORTHERN CONCRETE                                   32 SILK ROAD             FULTON           NY13069    THOMAS VENEZIA      3155982141PRESIDENT IBT       317                       566 SPENCER STREET       SYRACUSE         NY13204    FULTON           NY13069    20040430CONCRETE PRODUCTS                20040204JOHN J RUFFO        315471416400000040000004BUSINESS A                                                                  
SAUNDERS CONCRETE (ITHACA PLANT)                    PO BOX A                 NEDROW           NY13120    MICHAEL SAUNDERS    3154693219PRESIDENT IBT       317                       566 SPENCER STREET       SYRACUSE         NY13204    ITHACA           NY14850    20040510CONCRETE PRODUCTS                20040204WILLIAM E ARNAULT   315471416400000110000011BUSINESS A                                                                  
PENSACOLA BAY TRANSPORTATION INC                    6385 BAYBERRY ST         MILTON           FL32570    MARGIE WILCOX       2516335693          ATU       1395                      3300 N PACE BLVD STE 311 PENSACOLA        FL32505    MILTON           FL32570    20040331                                 20040128MICHEL A LOWERY     850433059600000230000026PRES & BA                                                                   
SINGLE ENGAGEMENT CLUB DATE EMPLRS NYC & VIC AFM 802VARIOUS ADDRESSES        VARIOUS CITIES                                                      AFM       802                       322 WEST 48TH STREET     NEW YORK         NY10036    NEW YORK         NY10036    20040414MUSICAL ENTERTAINMENT            20040129WILLIAM R DENNISON  212245480200010000000000RECORD VP                                                                   
JAY-OH PRODUCTION INC                               236 PARK AVENUE SOUTH    NEW YORK         NY10003    JIMMY OWENS         2124750358          AFM       802                       322 WEST 48TH STREET     NEW YORK         NY10036    NEW YORK         NY10033    20040331ENTERTAINMENT                    20040120WILLIAM R DENNISON  212245480200000010000000RECORD VP                                                                   
JILLBEAN MUSIC INC                                  108 WEST END AVE APT 2-A NEW YORK         NY10023    HERB BERNSTEIN      2128733234          AFM       802                       322 WEST 48TH STREET     NEW YORK         NY10036    NEW YORK         NY10023    20040331MUSICAL ENTERTAINMENT            20040120WILLIAM R DENNISON  212245480200000200000000RECORD VP                                                                   
BONITO GROUP                                        360 SACKETT POINT ROAD   NORTH HAVEN      CT06473    JIM BONITO          2032486190          CJA       210                       35 PULASKI ST/P O BOX 562NORWALK          CT06852    NORTH HAVEN      CT06473            MILLWORK                         20040130JON NORMAND         860296607400000180000034IND REP                                                                     
HATCH & BAILEY COMPANY                              1 MEADOW ST              SOUTH NORWALK    CT06854    CHARLES DELONG      2038665515          CJA       210                       35 PULASKI ST/P O BOX 562NORWALK          CT06852    NORWALK          CT06854    20040331MILLWORK                         20040130JON NORMAND         860296607400000010000000IND REP                                                                     
FULLERTON BUILDING SYSTEMS INC                      HIGHWAY 60 NORTH POB 308 WORTHINGTON      MN56187    HARRY ROBINETTE     5073763128          CJA       766                       404 N MAIN ST STE 103    OSHKOSH          WI54901    WORTHINGTON      MN56187    20040414PRE-FAB BUILDINGS                20040128DON KERN            651379027500000390000045                                                                            
QUAKER OATS COMPANY                                 418 2ND ST NE/POB 1848   CEDAR RAPIDS     IA52406    IAN BULLION         3193623121          CJA       1039                      404 N MAIN ST STE 103    OSHKOSH          IA54901    CEDAR RAPIDS     IA52406    20040418                                 20040128GIG CHRISTENSON     920528814800000370001050                                                                            
DESIGN DISPLAY GROUP INCORPORATED                   105 AMOR AVENUE          CARLSTADT        NJ07072    ANDREW FREEDMAN     2014386465PRESIDENT CJA       2682                      3030 MIDDLETOWN ROAD     BRONX            NJ10461    CARLSTADT        NJ07072    20040331DISPLAYS FOR STORES              20040126DERRICK GREEN       718518165500000780000083BA                                                                          
LOFFRENO ARCHITECTURAL WOODWORKING CO INC           32-50 BUFFINGTON ST      IRVINGTON        NJ07111    FRANK LOFFRENO      9733710039PRESIDENT CJA       2682                      3030 MIDDLETOWN ROAD     BRONX            NJ10461    IRVINGTON        NJ07111    20040331                                 20040126WILLIAM PETERS      718518165500000200000024BA                                                                          
SPAETH DESIGN INCORPORATED                          423 WEST 55TH STREET     NEW YORK         NY10019    DAVID SPAETH        2124890770CHAIRMAN  CJA       2682                      3030 MIDDLETOWN ROAD     BRONX            NJ10461    NEW YORK         NY10019    20040331ANIMATED STORE FIGURES           20040126DERRICK GREEN       718518165500000170000022BA                                                                          
ANDERSON BROTHERS CONSTRUCTION                      P O BOX 668              BRAINERD         MN56401    DAVID JOHNSON       2188291768          CLA       84                        PO 738/412 LAKELAND DR NEWILLMAR          MN56201    BRAINERD         MN56401    20040430HIGHWAY                          20040130TODD W AHRENHOLZ    320235487400001690000181NATL REP                                                                    
ANDERSON WESTERN INC                                P O BOX 2319             BISMARCK         ND58502    JOHN ERICKSON       7012223550          CLA       84                        PO 738/412 LAKELAND DR NEWILLMAR          MN56201    BISMARCK         ND58502    20040430HIGHWAY                          20040130TODD W AHRENHOLZ    320235487400000240000027NATL REP                                                                    
RIVER CITY ASPHALT INC                              P O BOX 183              SAVAGE           MN55378    RICH CARRON         9524458615          CLA       84                        PO 738/412 LAKELAND DR NEWILLMAR          MN56201    SAVAGE           MN55378    20040430                                 20040130TODD W AHRENHOLZ    320235487400000100000013NATL REP                                                                    
POWER GENERATION SERVICE INC                        1160 MCKINLEY STREET     ANOKA            MN55303    CARL CHALLGREN      7634211104PRESIDENT CWA       1140                      3747 MINNEHAHA AVE SOUTH MINNEAPOLIS      MN554062630ANOKA            MN55303    20040331                                 20040202EARLEY DENNIS       612721539700000140000000F S                                                                         
BUILDING SERVICES 32B & J LEGAL SERVICES            101 SIXTH AVENUE         NEW YORK         NY10005    RON RAAB            2126836699ATTY      CWA       1177                      1624 EAST 36TH STREET    BROOKLYN         NY11234    NEW YORK         NY10006    20040204                                 20040122JOHN BLASI          212221733100000000000000PRESIDENT                                                                   
PIONEER PRESS                                       345 CEDAR ST             ST PAUL          MN55101    DOUGLAS RANES                 VP O OPRT GCIU      1-M                       684 TRANSFER ROAD        ST PAUL          MN55114    SAINT PAUL       MN55101    20040331PRINTED PRODUCTS                 20040128ROBERT DEAN STANTON 651645083300000070000000EX VP                                                                       
SIGMUND COHN CORPORATION                            121 S COLUMBUS AVENUE    MT VERNON        NY10553    THOMAS COHN         9146645300PRESIDENT IAM       434 DISTRICT 15           1455 MAIN AVENUE         CLIFTON          NJ07011    MOUNT VERNON     NY10553    20040314PRECIOUS METAL WIRES ETC 2004012920040112AUGUST MORREALE     973340360100000500000000BR                                                                          
WPIX INC                                            220 EAST 42ND STREET     NEW YORK         NY10017    J A KULAS & T FAIR  3122225955ESQS.     IATSE     1                         320 WEST 46TH STREET     NEW YORK         NY10036    NEW YORK         NY10017    20040331NEWS SPORT & ENTERTAINMEN2004020220040129R NIMMO & WEKSELBLAT212333250000000500000007BUS MGRS                                                                    
FREDERICO EQUIPMENT CO INC                          45 STEEL ST/POB 60835    ROCHESTER        NY14606    JAMES FREDERICO     5856476066PRESIDENT IUOE      463                       3365 RICCO ROAD          RAMSONVILLE      NY14131    ROCHESTER        NY14606    20040331CONST EQUIPMENT LEASING  20040127        CLYDE J JOHNSTON JR 716434332700000000000000PRES & BM                                                                   
FREDERICO EQUIPMENT CO INC                          45 STEEL ST/POB 60835    ROCHESTER        NY14606    JAMES FREDERICO     5856476066PRESIDENT IUOE      832                       3174 BRIGHTON-HENRIETTA  ROCHESTER        NY14623    ROCHESTER        NY14606    20040331CONST EQUIPMENT LEASING  20040127        THOMAS F CHARLES    585272339000000000000000BM                                                                          
METROPOLITAN PARKING ASSOCIATION                    290 BROADWAY             NEW YORK         NY10007    JOEL STAHL          2124063590EX DIR    IBT       272                       22O EAST 23RD ST         NEW YORK         NY10010    NEW YORK         NY10007    20040305PARKING GARAGES AND LOTS         20040129EDDIE ALLERS        212726972600050000005300S T                                                                         
AVIS RENT A CAR SYSTEM (LUIS MUNOZ MARIN INT AIRPORT6 SYLVAN WAY             PARSIPPANY       NJ07054    WILLIAM G PRINS     9734963710VP OF L R IBT       901                       352 CALLE DEL PARQUE     SAN JUAN         PR00912    SAN JUAN         PR00908    20030319CAR RENTAL               20040126        JORGE FARINACCI     787722817700001500000200ESQ                                                                         
STORY COUNTY COMMUNITY LIFE                         104 S. HAZEL             AMES             IA50031    SHERRY HOWARD                 ESQ       AFSCME    61                        4320 N.W. 2ND AVE        DES MOINES       IA50313    AMES             IA500013   20040630HEALTH CARE              2003111420031114TRACY CONNER        515246262400000400000050BR                                                                          
SOUTHERN WINE & SPIRITS                             7575 SOUTH KOSTNER       CHICAGO          IL60652    JOSEPH TOPINKA                          IBT       710                       4217 S HALSTED ST        CHICAGO          IL60609    CHICAGO          IL60601    20040331LIQUOR DISTRIBUTION              20040202PATRICK W FLYNN     773254320000000000000100SECY TREAS                                                                  
NORTH WEST PAPER COMPANY (NORTHWEST)                4519 W PATTERSON         CHICAGO          IL60641                                            IBT       710                       4217 S HALSTED ST        CHICAGO          IL60609    CHICAGO          IL60641    20040331MISC                             20040202PATRICK W FLYNN     773254320000000000000002SECY TREAS                                                                  
EDWARD DON                                          2500 S HARLEM AVE        NORTH RIVERSIDE  IL60546    GREG SHAW                               IBT       710                       4217 S HALSTED ST        CHICAGO          IL60609    CHICAGO          IL60609    20040331MISC                             20040202PATRICK W FLYNN     773254320000000000000050SECY TREAS                                                                  
JFC INTERNATIONAL                                   815 TURNBERRY COURT      HANOVER PARK     IL60103                                            IBT       710                       4217 S HALSTED ST        CHICAGO          IL60609    CHICAGO          IL60609    20040331MISC                             20040202PATRICK W FLYNN     773254320000000000000008SECY TREAS                                                                  
MCCURRIE TEAMING COMPANY (MC CURRIE)                3114 S HALSTED ST        CHICAGO          IL60609    RICHARD MCCURRIE                        IBT       710                       4217 S HALSTED ST        CHICAGO          IL60609    CHICAGO          IL60609    20040430MISC                             20040202PATRICK W FLYNN     773254320000000000000005SECY TREAS                                                                  
VIENNA SAUSAGE & DAMEN AVENUE EXPRESS               2501 N DAMEN             CHICAGO          IL60647                                            IBT       710                       4217 S HALSTED ST        CHICAGO          IL60609    CHICAGO          IL60647    20040430MEAT PRODUCTS                    20040202PATRICK W FLYNN     773254320000000000000013SECY TREAS                                                                  
WHITE EXPRESS MEAT COMPANY                          3924 S WALLACE           CHICAGO          IL60609    JOHN KAPITANEK                          IBT       710                       4217 S HALSTED ST        CHICAGO          IL60609    CHICAGO          IL60609    20040430MISC                             20040202PATRICK W FLYNN     773254320000000000000001SECY TREAS                                                                  
BURKE MEAT COMPANY                                  3449 W 48TH PLACE        CHICAGO          IL60609    ARTHUR J CARAHER                        IBT       710                       4217 S HALSTED ST        CHICAGO          IL60609    CHICAGO          IL60609    20040430MISC                             20040202PATRICK W FLYNN     773254320000000000000001SECY TREAS                                                                  
RUPRECHT MEAT COMPANY                               370 NORTH CARPENTER      CHICAGO          IL60607    CARL SOMMERS                            IBT       710                       4217 S HALSTED ST        CHICAGO          IL60609    CHICAGO          IL60607    20040331MISC                             20040202PATRICK W FLYNN     773254320000000000000001SECY TREAS                                                                  
ODM TOOL & MANUFACTURING COMPANY INC                9550 JOLIET ROAD         MCCOOK           IL60525    CHIP MICHAELSON     7084856130          NPW       10                        1950 WEST ERIE ST        CHICAGO          IL60622    LA GRANGE        IL60525    20040305METAL STAMPING                   20040202ANTHONY IORI        312738082200000580000079BUS AGENT                                                                   
GUERNSEY BEL INC                                    4300 S MORGAN            CHICAGO          IL60609    MARTHA ORTEGO       7739274000HR        NPW       12                        1950 WEST ERIE ST        CHICAGO          IL60622    CHICAGO          IL60609    20040331FOOD PACKAGING                   20040202FRANK OLVERA        312738082200001000000150BUS AGENT                                                                   
IMAGEWORKS MANUFACTURING INC                        49 SOUTH STREET          PARK FOREST      IL60466    TOM BECKER          7085031122PRESIDENT NPW       16                        1950 WEST ERIE ST        CHICAGO          IL60622    PARK FOREST      IL60466    20040331COMPUTER PADS                    20040202WAYNE WOODARD       312738082200000220000022BUS AGENT                                                                   
DARCO ENTERPRISES                                   1600 S LAFLIN            CHICAGO          IL60608    JOHN FRIEDMAN       3122433000OWNER     NPW       16                        1950 WEST ERIE ST        CHICAGO          IL60622    CHICAGO          IL60608    20060831METAL STAMPING                   20040202ANTONIO RIOS        312738082200000190000019BUS AGENT                                                                   
SOLAR CORPORATION                                   100 SOLAR DRIVE          LIBERTYVILLE     IL60048    KEN FORMANSKI       8473672500DIR HR    NPW       18                        1950 WEST ERIE ST        CHICAGO          IL60622    LIBERTYVILLE     IL60048    20040302AUTO PARTS                       20040202KATHY RODRIGUEZ     312738082200002320000450BUS AGENT                                                                   
OCKERLUND INDUSTRIES                                6625 W VAN BUREN         FOREST PARK      IL60130    STAN JORAY          7087449319PRESIDENT NPW       20                        1950 WEST ERIE ST        CHICAGO          IL60622    FOREST PARK      IL60130    20040331PALLETS & BOXES (OX BOX)         20040202ANGEL M FEBUS       312738082200000160000025BUS AGENT                                                                   
